:10000000021847EFD39402400122EF652860178F52
:1000100028E52814600E14600B240270097527016E
:10002000C2028002D203D322AF4E22021565121BF8
:100030007CD322021D82E4F57BF57AF579F578D23E
:10004000092232021700121B7CD3220212B21219AB
:10005000FDD32202170090E781E090E7C1F090E61F
:100060008DE0FF90E780E06F6002C32290E782E0BE
:1000700012153F01040002CC0102D70202E2030183
:100080000714012215014A1601741E01861F01C9B9
:100090002002EA32030233031934033335038E3668
:1000a00003BF3704413804573904673A047D3B04E1
:1000b0008D3C04A23D04B23E04C73F04D74004EC8B
:1000c0004104FC42051843052844053B45055846B4
:1000d000056B47058848059E4905BB4A03564B01F9
:1000e000E26401E86501F06601F66701FC68020B55
:1000f0006902316A02396B064B6C06AB6D07526EB2
:10010000000007810202D490E7C07407F090E7C2B4
:1001100014F0A3740AF0A37401F0A3F0A374040212
:1001200006A290E7C07407F090E7C214F090E68052
:10013000E030E7047F0180027F0090E7C3EFF0A387
:100140007401F0E4A3F0A30206A290E7C07407F0E4
:1001500090E7C214F0AD7FAF05EFA3F0E57EA3F00A
:10016000FEAD7DAC7C7810121518AC06EFA3F0EC58
:10017000A30206A290E7C07404F090E7C27406F0F0
:10018000A3747802050F90E7C07404F090E7C2747E
:1001900006F090E783E02408901F87F07E1F7F879A
:1001a000AB07AA067D017F50121C387F50121A340B
:1001b0007E1F7F87AB07AA067D017F50121C1C9013
:1001c0001F87E090E7C302050F90E783E0240890C3
:1001d0001F88F090E784E0901F89F07E1F7F8802DF
:1001e000074012193D0202D41210BCD2040202D4FC
:1001f0001210B30202D41210B60202D490E783E0C8
:10020000FF1210D28E678F6802032090E784E0759A
:100210006700F568756800F56790E783E04268530A
:100220006701A3E0C313FFAD68AC671211140207A6
:100230007C121CC6121153D32290E783E014B40A37
:1002400000507A90025175F003A4C58325F0C58350
:100250007302026F02027702027F02028702028F9C
:1002600002029702029F0202A70202AF0202B785B2
:100270002B67852C688046852D67852E68803E8596
:100280002F678530688036853167853268802E8596
:1002900033678534688026853567853668801E8596
:1002a00037678538688016853967853A68800E8596
:1002b0003B67853C68800685436785446890E7C056
:1002c0007405F090E7C204F0E568806012002E40EB
:1002d0000302078102077C120046400302078102E5
:1002e000077C121CC612004ED322121D868E678F09
:1002f0006890E7C07404F090E7C27406F0EFA302C0
:10030000050F90E783E0756700F568FFAE67121D83
:1003100078400302078102077C121D8A8E678F686E
:1003200090E7C07405F090E7C204F0EFA3F0E56732
:1003300002059990E784E0756700F568FE90E78311
:10034000E0FDEEF567EDF568FFAE67121D7D400339
:1003500002078102077C857B6C857A6B85796A85CB
:10036000786990E7C07407F090E7C214F0E56CFF7D
:10037000E56BFEAC06EFA3F0ECA3F0AD6AAC6978D8
:1003800010121518AC06EFA3F0ECA30206A2121689
:10039000F78F6C8E6B8D6A8C6990E7C07407F09054
:1003a000E7C214F0AC06EFA3F0ECA3F0AD6AAC69C1
:1003b0007810121518AC06EFA3F0ECA30206A29079
:1003c000E786E0FFE48F6CF56BF56AF569AE6BAD1F
:1003d0006AAC69780812152CA804A905AA06AB070F
:1003e00090E785E0FFEB4FF56CEAF56BE9F56AE81D
:1003f000F569AF6C780812152CA804A905AA06ABFC
:100400000790E784E0FFEB4FF56CEAF56BE9F56ADE
:10041000E8F569AF6C780812152CA804A905AA069E
:10042000AB0790E783E0FFEB4FF56CEAF56BE9F57E
:100430006AE8F569AF6C121D3840030207810207B4
:100440007C90E7C07404F090E7C27406F0120028B4
:1004500090E7C3EF02050F90E783E0FF121D8E4087
:100460000302078102077C90E7C07404F090E7C2A2
:100470007406F01215FD90E7C3EF02050F90E783B5
:10048000E0FF121BFF400302078102077C90E7C0D8
:100490007404F090E7C27406F0121D9690E7C3EF63
:1004a000806D90E783E0FF120003400302078102A2
:1004b000077C90E7C07404F090E7C27406F0121D48
:1004c0009990E7C3EF804890E783E0FF121D184042
:1004d0000302078102077C90E7C07404F090E7C232
:1004e0007406F0121D9C90E7C3EF802390E783E031
:1004f000FF121D92400302078102077C90E7C0743F
:1005000004F090E7C27406F0121D9F90E7C3EFF06D
:1005100090E68F7404F0D32290E783E0FF121D234E
:10052000400302078102077C90E7C07405F090E762
:10053000C204F0E546A3F0E545805E90E784E075EF
:100540006700F568FE90E783E0FDEEF567EDF5687E
:10055000856745F54602077C90E7C07405F090E793
:10056000C204F0E54BA3F0E54A802E90E784E075E5
:100570006700F568FE90E783E0FDEEF567EDF5684E
:1005800085674AF54B02077C90E7C07405F090E759
:10059000C204F0E549A3F0E548A3F002064390E762
:1005a00084E0756700F568FE90E783E0FDEEF5678F
:1005b000EDF568856748F54902077CE52AF4704A3D
:1005c000901F8A04F0A37418F07E1F7F8AAB07AADD
:1005d000067D027F48121C387E1F7F8AAB07AA0661
:1005e0007D017F48121C1C901F8AE0B41805752AF3
:1005f000018003E4F52AE4901F8AF07E1F7F8AAB16
:1006000007AA067D017F48121C3890E7C07405F0E8
:1006100090E7C204F0E52A60217E1F7F8CAB07AA19
:10062000067D027F48121C1C901F8DE090E7C3F0EE
:10063000901F8CE090E7C4F08009E490E7C3F0A33A
:10064000749DF090E68F7405F0D322E4901F8EF035
:1006500090E7C07407F090E7C214F0E4901F8FF0A9
:100660007E1F7F8FAB07AA067D017F50121C387F4B
:1006700050121A347E1F7F8FAB07AA067D087F5069
:10068000121C1C901F90E090E7C3F0901F91E09027
:10069000E7C4F0901F92E090E7C5F0901F93E090C0
:1006a000E7C6F090E68F7407F0D322E4901F97F02E
:1006b000A374C0F07E1F7F97AB07AA067D027F5010
:1006c000121C387F50121A34901F977401F090E773
:1006d00083E0901F98F07E1F7F97AB07AA067D02EC
:1006e0007F50121C387F50121A34901F977402F0FA
:1006f00090E784E0901F98F07E1F7F97AB07AA06D3
:100700007D027F50121C387F50121A34901F97744C
:1007100003F090E785E0901F98F07E1F7F97AB076E
:10072000AA067D027F50121C387F50121A34901F87
:10073000977404F090E786E0901F98F07E1F7F97F3
:10074000AB07AA067D027F50121C387F50121A3464
:10075000802AE4F56D901F99E56DF0A374FFF07E9B
:100760001F7F99AB07AA067D027F50121C387F506D
:10077000121A34056DE56DC3940840D9121CC6D316
:1007800022C322200103020B45E54F14B40D0040A3
:1007900003020B459007A275F003A4C58325F0C59D
:1007a00083730207C9020880020914020950020B70
:1007b0004502099B0209BA0209D5020A16020A5229
:1007c000020A790208D2020874E4F535F536F533E9
:1007d000F534F531F532F52FF530F52DF52EF52BF5
:1007e000F52C90E671F0F5A075B4FF90E672F0F587
:1007f000B175B6FF00000090E6047480F0000000C0
:100800007406F0000000E4F0000000D200754F0212
:1008100090E680E030E71B90E60174EAF0E547706F
:1008200008754070753F178044E47540B8753F0BFC
:10083000803B90E60174AAF0E47FE87E03FDFCAB08
:1008400055AA54A953A852C31214F15019C374E8FD
:100850009555FF74039554FEE49553FDE49552FCC1
:10086000121D0D754F0DE4754040753F1FF53EF5A7
:100870003D020B45200903020B45754F02020B4553
:10088000121BA0E5BB20E703020B451210A78577DA
:100890007F85767E85757D85747CAF55AE54AD536E
:1008a000AC52EC4D4E4F6003121D0DE54CB4011CD3
:1008b000AF40AE3FAD3EAC3DAB55AA54A953A85294
:1008c000D31214F14006754F0C020B45E5517041EF
:1008d0008039C3E555957BFFE554957AFEE5539540
:1008e00079FDE5529578FCAB40AA3FA93EA83DC3EF
:1008f0001215074003020B458577258576248575FB
:1009000023857422121069E5517006754F03020B9E
:1009100045020AE9E47FB87E0BFDFCAB7BAA7AA90D
:1009200079A878C312150750211210B3E47F527EC4
:1009300003FDFCAB7BAA7AA979A878C312150740FE
:1009400003020B45121BA0020AE91210B6020B4566
:10095000300920300008854A41854B428006854891
:1009600041854942E5477003FF80027F01121CFD6B
:10097000020A41E47F64FEFDFCAB7BAA7AA979A858
:1009800078D31215075003020B45E54CB40106203D
:100990000003020B45120FFE020B45120FFE90E6FC
:1009a00080E030E7031210BC90E6D17401F0000043
:1009b0000075BB06754F07020B45E5BB20E7030238
:1009c0000B451210B9AE45AF46E4FCFD121D0D7586
:1009d0004F08020B45E5AC20E03190E680E030E7BF
:1009e0001300000090E6987402F0000000E490E626
:1009f00099F08011000000E490E698F0000000906B
:100a0000E6997440F0754F09020B450530E53070EA
:100a10003E052F020B4530000A052CE52C700C0515
:100a20002B8008052EE52E7002052DE5AA30E4176F
:100a3000300914E542154270021541E54245416016
:100a400027754F06020B450532E53270020531026B
:100a50000B45E5AC20E01700000090E6987402F02A
:100a6000000000E490E699F0754F0B020B45053449
:100a7000E53470020533020B4590E6A5E054706042
:100a800003020B45200003020B37E54C6401706B39
:100a9000AF40AE3FAD3EAC3DAB55AA54A953A852B2
:100aa000C31214F1402CE5552464FBE43554FAE4F8
:100ab0003553F9E43552F8C3E5779525FFE576958A
:100ac00024FEE5759523FDE5749522FCD3121507E8
:100ad000501CC20012106990E680E020E70B7FE80E
:100ae0007E037D007C00121D0D754F048057120F90
:100af000FE0536E53670020535804AC200754F02A4
:100b000090E680E020E73EE47FE87E03FDFCAB5505
:100b1000AA54A953A852C31214F15029C374E895DA
:100b200055FF74039554FEE49553FDE49552FC1271
:100b30001D0D754F0D800E754F01C201E528700522
:100b4000752701D20230026CE52724FE600C146088
:100b50002E1460392403705CD2001210A730000DEF
:100b600012102B854A41854B42C200800B1210693E
:100b7000854841854942D200E4FF121CFD802412C1
:100b80000FFE90E6F1E0F5297527048027E5BB30DC
:100b9000E7221210A7E542154270021541E54245D1
:100ba000416005752703800C300306C202C2038032
:100bb00003752702E5BA20E123120056401290E7A0
:100bc000C07403F090E7C27415F090E68F7403F0E0
:100bd00000000090E68D7480F00000002290E6B9DD
:100be000E07003020C8E147003020D0B24FE7003E0
:100bf000020D8E24FB7003020C88147003020C8219
:100c000014607314607624056003020DED121DA6B6
:100c10004003020DF990E6BBE024FE60221460332D
:100c200024FD601114602224067048E50A90E6B3A2
:100c3000F0E50B8037E51290E6B3F0E513802DE583
:100c40000C90E6B3F0E50D8023E50E90E6B3F0E5F9
:100c50000F801990E6BAE0FF121B2BAA06A9077BAA
:100c600001EA494B600DEE90E6B3F0EF90E6B4F088
:100c7000020DF9020DF2121CEB020DF9121D5C02BD
:100c80000DF9121D54020DF9121CD9020DF9121D95
:100c9000A84003020DF990E6B8E0247F60151460C7
:100ca0001924027063A205E43325E0FFA207E433B0
:100cb0004F8041E490E740F0803F90E6BCE0547EF6
:100cc000FF7E00E0D394807C0040047D0180027DA3
:100cd00000EC4EFEED4F242EF582741D3EF583E4AC
:100ce00093FF3395E0FEEF24A1FFEE34E68F82F50B
:100cf00083E0540190E740F0E4A3F090E68AF0909E
:100d0000E68B7402F0020DF9020DF2121DAA4003E7
:100d1000020DF990E6B8E024FE601624026003029A
:100d20000DF990E6BAE0B40105C205020DF9020D15
:100d3000F290E6BAE0705590E6BCE0547EFF7E008B
:100d4000E0D394807C0040047D0180027D00EC4E65
:100d5000FEED4F242EF582741D3EF583E493FF33A0
:100d600095E0FEEF24A1FFEE34E68F82F583E05498
:100d7000FEF090E6BCE05480131313541FFFE054C0
:100d80000F2F90E683F0E04420F0806D8064121D08
:100d9000AC506690E6B8E024FE60192402705A90C8
:100da000E6BAE0B40104D205804F90E6BAE06402EE
:100db0006047803E90E6BCE0547EFF7E00E0D39426
:100dc000807C0040047D0180027D00EC4EFEED4FF2
:100dd000242EF582741D3EF583E493FF3395E0FEE7
:100de000EF24A1FFEE34E68F82F5838008121DAE5A
:100df000500790E6A0E04401F090E6A0E04480F0C7
:100e000022E4F562F561F560F55F90E600E054E7F5
:100e10004410F0C208C205C207C206E4F5A075B4CA
:100e2000FF1213BA7E167F008E0A8F0B751216758D
:100e3000131275081675091C75101675115875145E
:100e40001675159490E680E030E70E85080C85094C
:100e50000D85100E85110F800C85100C85110D85E8
:100e6000080E85090FEE54E07003020F7B756300D6
:100e70007564807E167F008E658F66C374BE9FFF8B
:100e800074169ECF2402CF3400FEE48F5E8E5DF593
:100e90005CF55BF55AF559F558F557AF5EAE5DADAB
:100ea0005CAC5BAB5AAA59A958A857C31215075096
:100eb00026E564255AF582E5633559F58374CDF04E
:100ec000E55A2401F55AE43559F559E43558F558F1
:100ed000E43557F55780C4E4F55AF559F558F557F8
:100ee000AF5EAE5DAD5CAC5BAB5AAA59A958A857D2
:100ef000C31215075033E566255AF582E565355965
:100f0000F583E0FFE564255AF582E5633559F583FD
:100f1000EFF0E55A2401F55AE43559F559E435580E
:100f2000F558E43557F55780B785630A85640B7427
:100f3000002480FF741634FFFEC3E5139FF513E50C
:100f4000129EF512C3E50D9FF50DE50C9EF50CC341
:100f5000E50F9FF50FE50E9EF50EC3E5099FF50918
:100f6000E5089EF508C3E5119FF511E5109EF51003
:100f7000C3E5159FF515E5149EF514D2E843D82076
:100f800090E668E04409F090E65CE0443DF0D2AFC2
:100f900090E680E020E105D20A121AD090E680E0C7
:100fa00054F7F0538EF8C208300605120BDDC20666
:100fb000300829121DA25024C208121B5720051602
:100fc00090E682E030E704E020E1EF90E682E03056
:100fd000E604E020E0E4121AFF121DA41207838049
:100fe000C7000022120FE10000227808D8FE227804
:100ff0000CD8FE227810D8FE227818D8FE22C2AF74
:10100000C284120FE1D282120FE1C286120FE1D226
:1010100081120FE1C282120FE1D284120FE1C2816C
:10102000120FE1D286120FE1D2AF22C2AFD281C23B
:1010300084120FF4120FE4C283120FEAD283120F4C
:10104000E4C281120FE1D282120FE1C286120FE1D7
:10105000D281120FE1C282120FE1D284120FE1C2DB
:1010600081120FE1D286D2AF22C2AFD281C28412E6
:101070000FF4120FE4C285120FEAD285120FE4C2F8
:1010800081120FE1D282120FE1C286120FE1D281EA
:10109000120FE1C282120FE1D284120FE1C281125B
:1010a0000FE1D286D2AF22C2AFC280120FEFD28040
:1010b000D2AF22D28722C28722D2B522C2B522D293
:1010c000B5EE600678FFD8FEDEFAEF6002DFFEC202
:1010d000B522C2B0C2B4C2B1D2B2D2B0C2B0EFC4B3
:1010e000337F033392B2D2B0C2B0DFF7C2B2D2B014
:1010f000C2B0D2B0C2B0D2B0C2B0D2B4E4A2B333A4
:10110000FED2B0C2B07F08A2B333D2B0C2B0DFF714
:10111000D2B1FF22C2B0C2B4C2B1C2B2D2B0C2B068
:10112000EFC4337F033392B2D2B0C2B0DFF7C2B2A2
:10113000D2B0C2B0D2B0C2B0D2B0C2B0EC1392B290
:10114000D2B0C2B0ED7F083392B2D2B0C2B0DFF7F6
:10115000D2B122E4F572F573F570F57190E6A5E071
:1011600020E3F9E4F56EF56FC3E56E648094825078
:10117000517400256FF58274F8356EF583E573F0D0
:10118000E572FF7401256FF58274F8356EF583EF13
:10119000F074792573F573E43572F572FEAF73332D
:1011a00095E0FDFCE47B3C7AFFF9F8C31214F17082
:1011b00004F572F5737402256FF56FE4356EF56E04
:1011c00080A6E571B41515E570B4021090E6987428
:1011d00001F000000090E6997458800D90E6987434
:1011e00002F0000000E490E699F00000000571E5CF
:1011f000717002057064167004E570640260030289
:10120000115CE4F572F573F570F57190E6A5E020D8
:10121000E3F9E4F56EF56FC3E56E64809482505196
:101220007400256FF58274F8356EF583E573F0E58B
:1012300072FF7401256FF58274F8356EF583EFF057
:1012400074792573F573E43572F572FEAF733395D7
:10125000E0FDFCE47B3C7AFFF9F8C31214F1700462
:10126000F572F5737402256FF56FE4356EF56E80D7
:10127000A6E571B41315E570B4021090E6987401F8
:10128000F000000090E6997420800D90E6987402BA
:10129000F0000000E490E699F00000000571E571AF
:1012a0007002057064147004E57064026003021239
:1012b0000B22C0E0C083C082C085C084C086758612
:1012c00000C0D075D000C000C001C002C003C0067D
:1012d000C00790E678E030E206751B0602139C908A
:1012e000E678E020E10CE51B64026006751B07024E
:1012f000139CE51B24FE605F14603624FE7003021D
:10130000138D24FC70030213992408600302139CBC
:10131000AB17AA18A919AF1A051A8F827583001284
:1013200014A290E679F0E51A65167070751B0580B9
:101330006B90E679E0AB17AA18A919AE1A8E8275E0
:1013400083001214CF751B02E5166401704E90E6FF
:1013500078E04420F08045E51624FEB51A0790E6B3
:1013600078E04420F0E51614B51A0A90E678E044D7
:1013700040F0751B0090E679E0AB17AA18A919AEEA
:101380001A8E827583001214CF051A800F90E678AA
:10139000E04440F0751B008003751B005391DFD0C3
:1013a00007D006D003D002D001D000D0D0D086D054
:1013b00084D085D082D083D0E032752AFF1218D332
:1013c00090E61074A0F090E611F000000090E61492
:1013d00074E0F0000000E490E618F000000090E6F1
:1013e00019F000000090E61A7408F0000000E49084
:1013f000E61BF000000090E680E030E70F90E62466
:101400007402F0000000E490E625800DE490E624EC
:10141000F000000090E6257440F000000043AF01AA
:1014200090E60B7403F0000000D20590E68D748006
:10143000F000000090E65EE04440F090E65CE0449E
:101440003DF0758079E4F5A0F5B075B2FF75B5F79C
:10145000F5B075B040F5B000000090E6C07420F023
:10146000000000121BC1121BE1754E017551017580
:101470004500754602754A00754BFC754800754974
:10148000FDD2ACD204C201C203752701E490E6711B
:10149000F0F5A075B4FF90E672F0F5B175B6FF02F5
:1014a0001D64BB010CE58229F582E5833AF583E0F2
:1014b000225006E92582F8E622BBFE06E92582F8DD
:1014c000E222E58229F582E5833AF583E49322F866
:1014d000BB010DE58229F582E5833AF583E8F02228
:1014e0005006E92582C8F622BBFE05E92582C8F22E
:1014f00022EB9FF5F0EA9E42F0E99D42F0EC648019
:10150000C864809845F022EB9FF5F0EA9E42F0E92E
:101510009D42F0E89C45F022E86010ECA2E713FC45
:10152000ED13FDEE13FEEF13FFD8F022E8600FEF8E
:10153000C333FFEE33FEED33FDEC33FCD8F122D0A4
:1015400083D082F8E4937012740193700DA3A39377
:10155000F8740193F5828883E4737402936860EFF2
:10156000A3A3A380DFC0E0C0F0C083C082C0D07559
:10157000D000C000C001C002C003C004C005C00646
:10158000C007E5772401F577E43576F576E435751F
:10159000F575E43574F574AF7BAE7AAD79AC78EC63
:1015a0004D4E4F603BEF24FFF57BEE34FFF57AEDB7
:1015b00034FFF579EC34FFF578AF7BAE7AAD79FC8A
:1015c0004D4E4F701BD209300116E54FB404113057
:1015d000000512102B8009E54C64016003121069AC
:1015e000C2CFD007D006D005D004D003D002D0019E
:1015f000D000D0D0D082D083D0F0D0E032AF512212
:1016000012010002000000406C15010100000102FF
:1016100000010A06000200000040010009023C002F
:1016200001010080FA0904000006FF000000070520
:101630000102400000070581024000000705020288
:1016400000020007050402000200070586020002EE
:10165000000705880200020009023C000101008029
:10166000FA0904000006FF0000000705010240001F
:101670000007058102400000070502024000000744
:1016800005040240000007058602400000070588A7
:1016900002400000040309041003430079007000B5
:1016a0007200650073007300160345005A002D0098
:1016b0005500530042002000460058003200000050
:1016c000C0E0C083C08290E680E030E70E85080C61
:1016d00085090D85100E85110F800C85100C851164
:1016e0000D85080E85090F5391EF90E65D7410F09B
:1016f000D082D083D0E032AF55AE54AD53AC52223D
:10170000021C5400021C9A00021C8400021C6C0083
:101710000216C0000219C60002004200021DB000FD
:10172000021DB100021DB200021DB300021DB40073
:10173000021DB500021DB600021CB000021DB7005C
:10174000021DB800021DB000021DB900021DBA0042
:10175000021DBB00021DBC00021DBD00021DBE001B
:10176000021DBF00021DB000021DB000021DB0002E
:10177000021DC000021DC100021DC200021DC300E7
:10178000021DC400021DC500021DC600021DC700C7
:10179000021DC800021DC900021DCA00021DCB00A7
:1017a000021DCC00021DCD00021DCE00021DCF0087
:1017b000021DD000021DD10060801F0001111339ED
:1017c000010101070101030100000000F8FCFCFC1D
:1017d000FCFCFCFC000909000000123F0111133958
:1017e000010101070101030100000000FAFEFEFEF5
:1017f000FEFEFEFC00090900002D363F01113F01ED
:10180000010101070101010000000000F9FDFDFDDB
:10181000FDFDFDFC00000012002D123F01113F01F3
:10182000010101070101110000000000FBFFFFFFA3
:10183000FFFFFFFC00000012002D363F471F808095
:101840000000FC06F01100787FE4F6D8FD75817F7A
:1018500002188E020E01E493A3F8E493A34003F66A
:101860008001F208DFF48029E493A3F85407240CE4
:10187000C8C333C4540F4420C8834004F4568001C5
:1018800046F6DFE4800B0102040810204080901728
:10189000B8E47E019360BCA3FF543F30E509541FB8
:1018a000FEE493A360010ECF54C025E060A840B8C9
:1018b000E493A3FAE493A3F8E493A3C8C582C8CA47
:1018c000C583CAF0A3C8C582C8CAC583CADFE9DE1A
:1018d000E780BE90E60174EAF090E6F574FFF090C0
:1018e0001F80E090E6F3F0901F81E090E6C3F09057
:1018f0001F82E090E6C1F0901F83E090E6C2F09076
:101900001F85E090E6C0F0901F86E090E6F4F07549
:10191000AF07741FF59A7400F59B759DE4E4F59E7E
:10192000FF90E67BE090E67CF00FBF80F4000000C3
:10193000E490E6C4F000000090E6C5F022E4F5393A
:10194000F53AF537F538F56EF56FC20A200A357F9E
:10195000047E007D007C00121D0DAF6FAE6E121074
:10196000BF3009051210B9D20A3009FD056FE56FC5
:101970007002056E0538E53870020537856E3985C9
:101980006F3A80C8228E678F6890E600E054187026
:101990000DE567C313F567E56813F568801590E6F4
:1019a00000E05418FFBF100BE56825E0F568E56717
:1019b00033F567E5681568AE67700215674E600518
:1019c000121B6B80EE22C0E0C083C08290E680E0F4
:1019d00030E70E85080C85090D85100E85110F80E6
:1019e0000C85100C85110D85080E85090F5391EF9C
:1019f00090E65D7420F0D082D083D0E032E490E6AF
:101a0000CEF000000090E6CFF000000090E6D0F0AD
:101a100030041912193D7FE87E037D007C00121D01
:101a20000D3009FD1210B3C204121BA0C202754F83
:101a300001D2012290E678E020E6F9C2E990E6784A
:101a4000E04480F0EF25E090E679F090E678E03031
:101a5000E0F990E678E04440F090E678E020E6F99E
:101a600090E678E030E1D6D2E922A90790E678E066
:101a700020E6F9E51B702590E678E04480F0E92542
:101a8000E0440190E679F08D16AF03A907751701C0
:101a90008A188919E4F51A751B03D322C322A907F2
:101aa00090E678E020E6F9E51B702390E678E044C4
:101ab00080F0E925E090E679F08D16AF03A907756F
:101ac00017018A188919E4F51A751B01D322C3225C
:101ad000300A0990E680E0440AF0800790E680E052
:101ae0004408F07FDC7E0512198590E65D74FFF0F6
:101af00090E65FF05391EF90E680E054F7F022908B
:101b0000E682E030E004E020E60B90E682E030E19F
:101b100019E030E71590E680E04401F07F147E0084
:101b200012198590E680E054FEF022A907AE14AFAA
:101b3000158F828E83A3E064037017AD0119ED70D9
:101b400001228F828E83E07C002FFDEC3EFEAF05EC
:101b500080DF7E007F002290E682E044C0F090E6C5
:101b600081F04387010000000000227400F5869098
:101b7000FDA57C05A3E582458370F922120036C2DB
:101b8000011210B3D20400000090E6047480F0004B
:101b900000007406F0000000E4F0000000D2022211
:101ba000E4F56EF56FC3E56F954BE56E954A501001
:101bb000120FFE121DD2056FE56F70E9056E80E50C
:101bc00022E4F577F576F575F574F57BF57AF57918
:101bd000F578D209F5C875CA6F75CBFED2ADD2CAF9
:101be000227DD87C00E4FF1211147DC07C007F01AF
:101bf000121114E4FFFE121D42E4FFFE021D4BEF22
:101c0000D394024001228F51E551600B14600814F7
:101c100070081210B680031210B3D322121A6AE5AC
:101c20001B24FA600E146006240770F3D322E4F537
:101c30001BD322E4F51BD322121A9EE51B24FA6063
:101c40000E146006240770F3D322E4F51BD322E4BC
:101c5000F51BD322C0E0C083C082D2065391EF901F
:101c6000E65D7401F0D082D083D0E032C0E0C08362
:101c7000C082D2085391EF90E65D7408F0D082D014
:101c800083D0E032C0E0C083C0825391EF90E65D24
:101c90007404F0D082D083D0E032C0E0C083C08230
:101ca0005391EF90E65D7402F0D082D083D0E032A1
:101cb000C0E0C083C0825391EF90E65F7440F0D0E3
:101cc00082D083D0E03290E7C07403F090E7C27412
:101cd00006F090E68F7403F02290E740E54DF0E4C3
:101ce00090E68AF090E68B04F0D32290E740E52658
:101cf000F0E490E68AF090E68B04F0D322EFD394E0
:101d0000035009EF5403442090E6C0F022C2098F2B
:101d10007B8E7A8D798C7822EFD394014001228FCB
:101d200050D322EFD394014001228F4CD3220001E3
:101d300002020303040405058F558E548D538C5203
:101d4000D322AD07AC067F02021114AD07AC067FAB
:101d50000502111490E6BAE0F54DD32290E6BAE000
:101d6000F526D322E4F51BD2E9D2AF227F0212106E
:101d7000D2227F051210D222121D42D322121D4BF5
:101d8000D32253D8EF32121D6C22121D72228F4EB5
:101d9000D3228F47D322AF2822AF5022AF4722AFA2
:101da0004C22D322D322D322D322D322D322D32212
:101db0003232323232323232323232323232323203
:101dc00032323232323232323232323232323232F3
:101dd0003232229B67DD03A21EC138D0E01E79B5E6
:101de0001FF4FE95A1630E51FF2B6B2C718FA48EF7
:101df0008F7DB77A1244354A3A1AB9E474575F0AAC
:101e0000AAADCC2CBB55CA6A4FFE9F8ADBC5AF7BFF
:101e1000F66A452BFB48624407D81C69E09B28FD05
:101e20007DFCD400ACEB95EF4A38FA0A0D48967663
:101e30007A2C91B1F7D1052C33EE8B678757E2A44A
:101e4000BDF47921C3333886DF895248F8757C6246
:101e5000F86BC194FC69A0F877F328A4B21C79034D
:101e6000AF6D97D0896C255D2C3E1456B96B23EA73
:101e7000E397D71551BB1201F4B9277EE1BFD2C554
:101e800032D60AD061CB31C6315B8829125650E771
:101e9000EA7A96741F7952420BC6C17A6A2B6ECDCC
:101ea00062EB23E7207EEE9949EFB6B239FBD635D7
:101eb000DD587F268A7530C9394C922246A0DC2233
:101ec000A0DBAA53530F20A8E247208B7DCD231817
:101ed0004618D942AB5616E4AD24DAB926F7F644D3
:101ee000FA901FC55E4048355292394C3D5312114D
:101ef0003EA4FBD1A0E74DAC6975869E8DDEDAA2CB
:101f00000111133901010107010103010000000063
:101f1000F8FCFCFCFCFCFCFC000909000000123F82
:101f20000111133901010107010103010000000043
:101f3000FAFEFEFEFEFEFEFC00090900002D363F03
:101f400001113F0101010107010101000000000032
:101f5000F9FDFDFDFDFDFDFC00000012002D123F0E
:101f600001113F0101010107010111000000000002
:101f7000FBFFFFFFFFFFFFFC00000012002D363FBC
:101f8000800000FC06F0117CB445D87EA23CFB9B8F
:101f9000F1C424388E86E1880EEAD833EE19CA746B
:101fa00051D5C047B05A75ACE9B09CDDCF3EF7A221
:101fb000EF1F07C58C424E3A91284FD73DEFA8F549
:101fc00067C5DA49C1C0D71A7D96AD6527944F1D04
:101fd000435F596AE684FBB59A78EFD349930BFACD
:101fe0008F94B6B2B2FF108C91A9EB3F629D16217F
:101ff000CE021BD4E00AAFF73308EC5A0CE8F5FD2B
:00000001FF
