:0A1B25000001020203030404050599
:10077900E4F513F512F511F510C209C206C208C253
:10078900071219EA120ACA7E137F008E4C8F4D7523
:100799005413755512754A13754B1C7552137553BD
:1007A9004A755613755778EE54E070030208C07500
:1007B90014007515808E168F17C374A29FFF7413CA
:1007C9009ECF2402CF3400FEE48F0F8E0EF50DF577
:1007D9000CF50BF50AF509F508AF0FAE0EAD0DAC2A
:1007E9000CAB0BAA0AA909A808C3120A935026E55B
:1007F90015250BF582E514350AF58374CDF0E50B63
:100809002401F50BE4350AF50AE43509F509E4355F
:1008190008F50880C4E4F50BF50AF509F508AF0FEA
:10082900AE0EAD0DAC0CAB0BAA0AA909A808C312F0
:100839000A935031AE0AAF0BE5172FF582E5163E44
:10084900F583E0FDE5152FF582E5143EF583EDF01E
:10085900EF2401F50BE43EF50AE43509F509E43521
:1008690008F50880B985144C85154D74002480FF5E
:10087900741334FFFEC3E5559FF555E5549EF554B1
:10088900C3E54F9FF54FE54E9EF54EC3E5519FF5E4
:1008990051E5509EF550C3E54B9FF54BE54A9EF552
:1008A9004AC3E5539FF553E5529EF552C3E5579F59
:1008B900F557E5569EF556D2E843D82090E668E00C
:1008C9004409F090E65CE0443DF0D2AF90E680E068
:1008D90020E105D20A12177C90E680E054F7F05324
:1008E9008EF8C209300705120555C20730092912C9
:1008F9001BAF5024C2091218F520061690E682E0B3
:1009090030E704E020E1EF90E682E030E604E02001
:0D091900E0E41217AB121BB112116F80C782
:1005550090E6B9E0700302060614700302068324D0
:10056500FE700302070624FB7003020600147003E5
:100575000205FA14607314607624056003020765AA
:10058500121BB3400302077190E6BBE024FE602214
:1005950014603324FD601114602224067048E54C74
:1005A50090E6B3F0E54D8037E55490E6B3F0E555B8
:1005B500802DE54E90E6B3F0E54F8023E55090E6BB
:1005C500B3F0E551801990E6BAE0FF1217D7AA06F5
:1005D500A9077B01EA494B600DEE90E6B3F0EF9079
:1005E500E6B4F002077102076A121AAE0207711229
:1005F5001B810207711215F9020771121A9C020775
:1006050071121BB5400302077190E6B8E0247F60C4
:100615001514601924027063A206E43325E0FFA2D5
:1006250008E4334F8041E490E740F0803F90E6BC1A
:10063500E0547EFF7E00E0D394807C0040047D0181
:1006450080027D00EC4EFEED4F2425F582741B3EA5
:10065500F583E493FF3395E0FEEF24A1FFEE34E646
:100665008F82F583E0540190E740F0E4A3F090E633
:100675008AF090E68B7402F002077102076A121B7A
:10068500B7400302077190E6B8E024FE6016240225
:10069500600302077190E6BAE0B40105C2060207DD
:1006A5007102076A90E6BAE0705590E6BCE0547EA8
:1006B500FF7E00E0D394807C0040047D0180027DB4
:1006C50000EC4EFEED4F2425F582741B3EF583E4C8
:1006D50093FF3395E0FEEF24A1FFEE34E68F82F51C
:1006E50083E054FEF090E6BCE05480131313541FCE
:1006F500FFE0540F2F90E683F0E04420F0806D80FA
:1007050064121BB9506690E6B8E024FE6019240215
:10071500705A90E6BAE0B40104D206804F90E6BA6A
:10072500E064026047803E90E6BCE0547EFF7E00B8
:10073500E0D394807C0040047D0180027D00EC4E76
:10074500FEED4F2425F582741B3EF583E493FF33BC
:1007550095E0FEEF24A1FFEE34E68F82F583800855
:10076500120080500790E6A0E04401F090E6A0E07A
:030775004480F0CD
:01077800225E
:030033000212FBBB
:0412FB0053D8EF32A3
:1019EA00758CE0758AC0E58954F04401F589758ED5
:0819FA0003D28CD2A9D2AF2266
:03000B0002121BC3
:10121B00C0E0C0F0C083C082C0D075D000C000C099
:10122B0001C002C003C004C005C006C007758CE036
:10123B00758AC0D28CE47F607EEAFDFCAB49AA487C
:10124B00A947A846C3120A935019AF49AE48AD47F8
:10125B00AC46EF2401F549E43EF548E43DF547E49F
:10126B003CF546E47F01FEFDFCAB49AA48A947A823
:10127B0046C3120A937008E5A054F02531F5A0E59A
:10128B002B2401FFE4352AFEE4FCFDAB49AA48A957
:10129B0047A846C3120A93700553A0F0C28CD0071F
:1012AB00D006D005D004D003D002D001D000D0D0CE
:0912BB00D082D083D0F0D0E032E3
:1013000012010002000000401816118300000102C3
:1013100000010A06000200000040010009022E0040
:1013200001010080FA0904000004FF000000070525
:1013300001024000000705820200020007050202C8
:101340000002000705810240000009022E00010191
:101350000080FA0904000004FF00000007050102F4
:10136000400000070582024000000705020200025B
:101370000007058102400000040309041003510026
:10138000480059002D004300430044001603490063
:1013900043003800330030003000200020002000DF
:0413A0002000000029
:100D460060802800030A0303020203070000000272
:100D5600000002000A2B0B131115111100000000F0
:100D66000000003F020A030303030307000000021A
:100D7600000002000A2B130B1115111100000000D0
:100D86000000003F032D03030303030700000002D6
:100D9600000002000A2B0B131115111100000000B0
:100DA6000000003F030A0A0A0A0A0A0700000002B6
:100DB600000002000A2B130B111511110000000090
:100DC6000000003F602428870000000000000000AB
:100DD600000000000000000000000000000000000D
:100DE600000000000000000000000000472880808E
:060DF600000011CA4E00CE
:100EE30090E60174CAF090E6F574FFF0902880E074
:100EF30090E6F3F0902881E090E6C3F0902882E03A
:100F030090E6C1F0902883E090E6C2F0902885E057
:100F130090E6C0F0902886E090E6F4F075AF077491
:100F230028F59A7400F59B759DE4E4F59EFF90E621
:100F33007BE090E67CF00FBF80F490E67174FFF0E5
:100F4300F5B490E672E04480F043B680000000E41C
:100F530090E6C4F000000090E6C5F0902887E0908A
:100F6300E6C6F0902888E090E6C7F0902889E090E4
:100F7300E6C8F090288AE090E6C9F090288BE090CC
:100F8300E6CAF090288CE090E6CBF090288DE090B4
:0B0F9300E6CCF090288EE090E6CDF058
:010F9E002230
:03004300021000A8
:0300530002100098
:10100000021A0200021A5F00021A4900021A1A00AC
:101010000216AA0002163600020FFF000212FF009D
:10102000021BBB00021BBC0002188000021544001A
:10103000021BBD00021BBE00021BBF00021BC00042
:10104000021BC1000212FF00021BC200021BC300F0
:10105000021BC400021BC500021BC600021BC70006
:10106000021BC8000212FF000212FF000212FF0062
:10107000021BC900021BCA00021BCB00021BCC00D2
:10108000021BCD00021BCE00021BCF00021BD000B2
:10109000021BD100021BD200021BD300021BD40092
:1010A000021BD500021BD600021BD700021BD80072
:0810B000021BD900021BDA004B
:1017AB0090E682E030E004E020E60B90E682E03049
:1017BB00E119E030E71590E680E04401F07F147EFC
:0C17CB00001215B390E680E054FEF022FE
:1018F50090E682E044C0F090E681F0438701000065
:0419050000000022BC
:10177C00300A0990E680E0440AF0800790E680E0A9
:10178C004408F07FDC7E051215B390E65D74FFF023
:0F179C0090E65FF05391EF90E680E054F7F02273
:0217D700A90760
:1017D900AE56AF578F828E83A3E064037017AD01B5
:1017E90019ED7001228F828E83E07C002FFDEC3E83
:0917F900FEAF0580DF7E007F00D9
:0118020022C3
:1015B3008E1E8F1F90E600E054187012E51F240161
:1015C300FFE4351EC313F51EEF13F51F801590E6D8
:1015D30000E05418FFBF100BE51F25E0F51FE51EC3
:1015E30033F51EE51F151FAE1E7002151E4E600556
:0615F30012190980EE222E
:101909007400F58690FDA57C05A3E582458370F9F1
:0119190022AB
:100DFC00C18202230000022E1040C100013C00C140
:0C0E0C0005C10404420000000001390090
:100ACA0090E600E054E74410F000000000000090B7
:100ADA00E61074A0F000000090E60B7401F090E6B6
:100AEA001274E0F0000000E490E613F000000090B9
:100AFA00E614F000000090E615F000000000000087
:100B0A0090E6D27402F090E6047480F0000000745B
:100B1A0002F0000000E4F0000000120EE390E61874
:100B2A007408F000000090E619F000000090E61A40
:100B3A00F000000090E61BF0000000E490E671F07F
:100B4A0075B4FF90E672F075B67F75B1FF90E670E6
:100B5A00F075B2FF75B5FFC28CD2A0121B91752336
:100B6A000275240000000090E61074A0F000000056
:100B7A0000000090E611F000000090E65EE04408F4
:100B8A00F0000000E490E68DF090E65EE04404F0A8
:100B9A0000000053A0FD90E68F7404F07F9A7E0057
:100BAA00121B397528007529B4753D01753E90757B
:100BBA002E10752FB875400675412C121B8990E6C8
:100BCA007AE054FEF0E4FD7F90121AC07F647E0042
:100BDA001215B37DFF7F42121AC07F647E00121580
:100BEA00B37D827F4E121AC07532FFE4F53590E765
:100BFA0082E532F090E781E535F0121A32121B9144
:100C0A001219607F887E131219281219607F887E54
:100C1A00131219281219607F887E13121928121BC1
:100C2A009F1214C77FF01212C47F887E13121928EC
:040C3A0043B101229F
:0E1AF400EF2401FBE43EFA7D047F48021998BE
:100F9F00E535C313FFC374809FF51EE535D3940069
:100FAF0040067532FF43B101E535700353B1FE7E44
:100FBF00E77FC0121AF49028EBE532F07A287BEB2A
:100FCF007D017F211219B49028EB7402F0A3748075
:100FDF00F07A287BEB7D027F281219B4E49028EB7E
:100FEF00F0A3E51EF07A287BEB7D027F280219B46F
:10116F00E5452401F545E43544F544E43543F543BD
:10117F00E43542F542E47FE87E03FDFCAB45AA442B
:10118F00A943A842C3120A93700F9028EBF07A2854
:10119F007BEB7D017F481219B47FA07E867D017C99
:1011AF0000AB45AA44A943A842C3120A9370031285
:1011BF000F9F7F407E0D7D037C00AB45AA44A94362
:1011CF00A842D3120A93400CE4F545F544F543F5D4
:1011DF004212193F300134753901E5B130E7032070
:1011EF0005F81210B8C201E4F5391219607F887E34
:1011FF00131219281219607F887E131219281219D9
:0C120F00607F887E13121928121B9F229A
:021BAF00D3223F
:021BB100D3223D
:021BB300D3223B
:1015F90090E680E030E71800000090E6207402F0E1
:10160900000000E490E621F0000000D202801600FC
:101619000000E490E620F000000090E6217440F01C
:0D162900000000C20290E6BAE0F53AD322BC
:101A9C0090E740E53AF0E490E68AF090E68B04F0AB
:021AAC00D32243
:081B810090E6BAE0F527D3223B
:101AAE0090E740E527F0E490E68AF090E68B04F0AC
:021ABE00D32231
:021BB500D32239
:021BB700D32237
:021BB900D32235
:10008000E4F518F51990E6B9E0120AA400B4B3003B
:10009000ECB5023AB60261BB02A8BC0351C1030928
:1000A000C203CFC503EEC60423C904A8CA04E9CB22
:1000B00000000551E490E68AF090E68BF090E6A00F
:1000C000E020E1F990E68BE0F518E4F5B390E60165
:1000D00074CAF0D20100000090E6047480F00000C1
:1000E000007402F0000000E4F0020553E490E68A98
:1000F000F090E68BF090E6A0E020E1F990E68BE04E
:10010000F518D3943F4024E4F51974402519F5827D
:10011000E434E7F583E0FF74AB2519F582E4342875
:10012000F583EFF00519E519B440DF7F8A7E0012F0
:100130001B399028ABE0FF7E00121B429028ABE0F9
:10014000FF7E00121B4B9028ABE0FF7E00121B5479
:100150009028ACE075F004A4FFAEF0121B5D90286F
:10016000ACE075F004A4FFAEF0121B669028ACE082
:1001700075F004A4FFAEF0121B6F9028B0E0C3949A
:100180000250139028CCE090E6C07005744EF080C9
:1001900016749CF080119028CCE090E6C070057435
:1001A0009FF08003749DF09028CEE0F5369028CB28
:1001B000E0F5349028CFE0F53B9028D9E0F533A363
:1001C000E0FEA3E07C002400F526EC3EF525902817
:1001D000B1E0F530E53070037530019028B6E0FEEF
:1001E000A3E07C002400F529EC3EF528A3E0FEA363
:1001F000E02400F53EEC3EF53D9028B2E0FEA3E0A1
:100200002400F52FEC3EF52EA3E0FEA3E02400F53C
:1002100041EC3EF5409028BCE0FEA3E02400F53818
:10022000EC3EF5379028BAE0FEA3E02400F52DEC73
:100230003EF52CE4FD7F9002041DE4F51974AB2516
:1002400019F582E43428F583E0FF74402519F5821E
:10025000E434E7F583EFF00519E519B40ADF02038A
:100260003DE490E68AF090E68BF090E6A0E020E195
:10027000F978EB7C287D017B017AE679BC7E007FF2
:10028000011209F690E6BEE0FF7E0078EC7C287D46
:10029000017B017AE779401209F690E6BAE0C313D0
:1002A000FF90E6BEE0048059E490E68AF090E68B89
:1002B000F090E6A0E020E1F978EB7C287D017B015D
:1002C0007AE679BD7E007F011209F678EC7C287D04
:1002D000017B017AE679BC7E007F011209F690E687
:1002E000BEE0FF7E0078ED7C287D017B017AE77916
:1002F000401209F690E6BAE0C313FF90E6BEE02490
:1003000002FD7A287BEB02054C90E74074E9F0A3EC
:100310007404F0A3740CF0A37426F0A37407F0A384
:1003200074EEF0A37401F0A37403F0A37453F030DF
:100330000205E4A3F0800690E74974FFF000000096
:10034000E490E68AF000000090E68B740AF0020563
:1003500053E490E68AF090E68BF090E6A0E020E18E
:10036000F990E68BE0F518C298D39400500302058B
:100370005390E740E0940A5007E02430FF121B023C
:1003800090E740E0B40A057F61121B0290E740E06D
:10039000B40B057F62121B0290E740E0B40C057FAE
:1003A00063121B0290E740E0B40D057F64121B024C
:1003B00090E740E0B40E057F65121B0290E740E035
:1003C000640F60030205537F66121B020205537A15
:1003D000E77B407D047F48121998000000E490E616
:1003E0008AF000000090E68B7404F0020553E4905C
:1003F000E68AF090E68BF090E6A0E020E1F990E646
:100400008BE0F518D39401500302055390E741E0C7
:10041000FD7F42121AC090E740E0FD7F4E121AC0E5
:10042000020553E490E68AF090E68BF090E6A0E0B7
:1004300020E1F990E68BE0F518D394015003020512
:100440005390E740E05480C4131313540124FF92E7
:10045000A3E05440C41313540324FF92A2E0542099
:10046000C413540724FF92A1E05410C4540F24FF76
:1004700092A0A3E075F00AA4FFAEF01215B390E7C6
:1004800040E05408131313541F24FF92A3E05404B4
:100490001313543F24FF92A2E05402C31324FF928B
:1004A000A1E01392A002055390E6BCE090290BF066
:1004B0007A297B0B7D017F501219B47A297B0B7D41
:1004C000017F501219B490E6BEE0FD7AE77B407FD1
:1004D00050121998E490E68AF000000090E6BEE021
:1004E00090E68BF0000000806AE490E68AF000005D
:1004F0000090E68BF000000090E6A0E020E1F9908B
:10050000E6BCE0D39407404B78EB7C287D017B016F
:100510007AE679BC7E007F011209F690E6BEE0FF24
:100520007E0078EC7C287D017B017AE77940120916
:10053000F690E6BEE004FD7A287BEB7F501219B4FA
:1005400090E6BEE004FD7A287BEB7F501219B48060
:0405500002D322C3ED
:010554002284
:101A0200C0E0C083C082D2075391EF90E65D7401BB
:081A1200F0D082D083D0E03255
:101A4900C0E0C083C0825391EF90E65D7404F0D08A
:061A590082D083D0E032D0
:101A5F00C0E0C083C0825391EF90E65D7402F0D076
:061A6F0082D083D0E032BA
:1016AA00C0E0C083C08285524E85534F854F8285E4
:1016BA004E83A37402F0854A50854B518551828529
:1016CA005083A37407F05391EF90E65D7410F0D045
:0616DA0082D083D0E03253
:101A1A00C0E0C083C082D2095391EF90E65D74089A
:081A2A00F0D082D083D0E0323D
:10163600C0E0C083C08290E680E030E720854A4E55
:10164600854B4F854F82854E83A37402F085525099
:10165600855351855182855083A37407F05391EFCA
:0D16660090E65D7420F0D082D083D0E03299
:010FFF0032BF
:0112FF0032BC
:011BBB0032F7
:011BBC0032F6
:10188000C0E0C083C082C2AF00000090E68F740445
:10189000F00000005391EF90E65FE04404F0D2AF17
:0718A000D082D083D0E032BA
:0D154400C0E0C083C082C0D075D000C007D9
:10155100C2AF90E6A1E020E1F990E780E0146012CB
:101561002404601C14601D1460241470267522006C
:10157100802190E782E0F53290E781E0F535801334
:10158100C28C800F90E781E024FF920580057522CF
:1015910000D20300000090E68DE4F05391EF90E655
:0715A1005FE04408F0D2AF47
:0B15A800D007D0D0D082D083D0E0323A
:011BBD0032F5
:011BBE0032F4
:011BBF0032F3
:011BC00032F2
:011BC10032F1
:011BC20032F0
:011BC30032EF
:011BC40032EE
:011BC50032ED
:011BC60032EC
:011BC70032EB
:011BC80032EA
:011BC90032E9
:011BCA0032E8
:011BCB0032E7
:011BCC0032E6
:011BCD0032E5
:011BCE0032E4
:011BCF0032E3
:011BD00032E2
:011BD10032E1
:011BD20032E0
:011BD30032DF
:011BD40032DE
:011BD50032DD
:011BD60032DC
:011BD70032DB
:011BD80032DA
:011BD90032D9
:011BDA0032D8
:060E19008F1A8C1B8D1CDA
:100E1F00531A0753A0BF7F0A7E00121928E4F51D4D
:100E2F00F51EC37402951EFFE51AA807088002C3BA
:100E3F0013D8FC30E00543A020800353A0DF7F0AC6
:100E4F007E0012192843A0107F0A7E001219285322
:100E5F00A0EF7F0A7E00121928051EE51E700205FD
:100E6F001DC39403E51D6480948040B6E4F51DF521
:100E7F001EC37409951EFFE51CAE1BA8070880054D
:100E8F00CEC313CE13D8F930E00543A0208003530F
:100E9F00A0DF7F0A7E0012192843A0107F0A7E0070
:100EAF0012192853A0EF7F0A7E00121928051EE59C
:100EBF001E7002051DC3940AE51D6480948040B125
:100ECF0043A0407F0A7E0012192853A0BF7F0A7EDD
:040EDF0000021928CC
:091B3900AD07AC06E4FF020E1931
:091B4200AD07AC067F04020E1988
:091B4B00AD07AC067F05020E197E
:091B5400AD07AC067F06020E1974
:091B5D00AD07AC067F01020E1970
:091B6600AD07AC067F02020E1966
:091B6F00AD07AC067F03020E195C
:101AC0009028EBEDF0EFC313FF7A287BEB7D01024A
:021AD00019B447
:1018A7009028EB7402F0A37480F07A287BEB7D021A
:1018B7007F281219B4E49028EBF0A3F07A287BEB89
:0718C7007D027F280219B425
:101A8900E49028EBF0A3EFF07A287BEB7D027F3C12
:031A99000219B47B
:101A75009028EB7440F0A3EFF07A287BEB7D027F92
:041A85003C0219B452
:1014C7007FAE121A89E4FF121A897F10121A897FD8
:1014D70040121A897FB0121A897F81121A897FCF29
:1014E700121A897FA1121A897FA6121A897FA81258
:1014F7001A897F3F121A897FC8121A897FD3121A55
:1015070089E4FF121A897FD5121A897F80121A89F6
:101517007FD9121A897F11121A897FDA121A897FE5
:1015270002121A897F8D121A897F14121A897FDB9A
:0D153700121A897F20121A897FAF021A89CB
:0212C4008F1881
:1012C600E4FF121A897F10121A897FB0121A8975E3
:1012D6001A04E51A24B0FF121A89E4F519AF181298
:1012E6001A750519E519C3948040F2051AE51AC363
:0412F600940840DE3A
:0112FA0022D1
:0E191A007FFC7E08121928121B167FFC7E0827
:10192800EF7803C333CE33CED8F9FFEF4E6007EF1D
:071938001F70F81E80F5226C
:031BA300C28222D9
:031BA600D28222C6
:031BA900C28522D0
:031BAC00D28522BD
:061B9100121BA6021BACB2
:10193F00121BA37F027E00121928121BA9121BA6CD
:10194F007F027E00121928121BAC7F027E00021943
:01195F00285F
:101AD200E4FDFC12193F0DBD00010CBC0DF5BDF675
:011AE200F211
:011AE30022E0
:011BDB0022E7
:0A1B2F00121AE4121B9F43B140227A
:091B780053B1BF12197C021B9F3E
:1013A400E534B40102C2A0121B2FE5367075752214
:1013B400019028ADE075F040A485F01CF51DAF2226
:1013C4007E00AC1CAD1D120A6BD3EF9400EE9400AA
:1013D40040147FFF7E031215B3120F9FE51D151DE8
:1013E40070DC151C80D89028AEE0751C00F51DAF8C
:1013F400227E00AC1CAD1D120A6BD3EF9400EE9458
:101404000040147F007E011215B3120F9FE51D15D5
:101414001D70DC151C80D89028AFE0FF7E001215EB
:10142400B38009752201E522640160FA121B78E594
:0614340034B40102D2A055
:01143A00228F
:10180300AD07AC06D3ED9400EC9400401E0000003D
:10181300EE90E6D0F0000000ED90E6D1F00000007D
:0C18230075BB04000000E5BB30E7FB22B1
:081673008C1C8D1DAB07AA06BB
:10167B00E4FDFCC3ED951DEC951C5022EA90E6D0E1
:10168B00F0000000EB90E6D1F000000075BB060007
:0E169B000000E5BB30E7FB0DBD00010C80D563
:0116A900221E
:10182F00AD07AC06000000ED25E0EC3390E6D0F0FC
:10183F00000000ED25E090E6D1F000000075BB043C
:09184F00000000E5BB30E7FB22BC
:1010B800C203121AD27539021213A4753903300308
:1010C8000302116EE4F51AF51BC3E51B9529E51A11
:1010D8009528500D12193F051BE51B70EC051A8069
:1010E800E8E533D39400400CE533FD7C00AF2FAE28
:1010F8002E121673D3E5269400E52594004007AF19
:1011080026AE2512182FE4F518F519C3E5199541EF
:10111800E5189540502C121858E4F51AF51BC3E54C
:101128001B95307480F8651A98500D12193F051BED
:10113800E51B70EA051A80E60519E51970CD051852
:1011480080C9E4F51AF51BC3E51B953EE51A953DE4
:10115800500D12193F051BE51B70EC051A80E8AF0E
:0611680038AE3712180337
:01116E00225E
:10185800000000E52F25E0E52E3390E6D0F00000EB
:1018680000E52F25E090E6D1F000000075BB0400EC
:081878000000E5BB30E7FB2294
:101A3200E490E608F075C83443985053877FC2ACEF
:071A420075CBFF75CA642299
:0D1B0200309902C2998F993099FDC2992245
:1018CE0090000020981CA3AF82AE83E4FCFD7BFA4F
:1018DE007AFFF9F8C3120A7D5004D2008004C200C8
:0618EE0080E1C298AF99F1
:0118F40022D1
:071B0F007FC47E09121928B2
:041B160075B009227B
:041B970075B0032200
:041B9B0075B00622F9
:071B1A007FC47E09121928A7
:041B210075B00C226D
:041B9F00E4F5B02297
:10196000121B2112191A121B97121924121B9B12F7
:0C1970001924121B217FFC7E080219289C
:10197C00121B21121924121B9B121924121B9712D1
:0C198C00191A121B217FFC7E080219288A
:101AE400121B97121B0F121B1A7FC47E090219289E
:1019D000121B977FC47E09121928121B9B121B1A17
:0A19E000121B0F7FC47E09021928B4
:081B8900E4F55DD2E9D2AF22C0
:1016E00090E678E020E6F9C2E990E678E04480F000
:1016F000EF25E090E679F090E678E030E0F990E6CA
:1017000078E04440F090E678E020E6F990E678E072
:0617100030E1D6D2E9220F
:10174A00A90790E678E020E6F9E55D702390E6784F
:10175A00E04480F0E925E090E679F08D58AF03A9DE
:10176A00077559018A5A895BE4F55C755D01D322D4
:02177A00C32288
:10171600A90790E678E020E6F9E55D702590E67881
:10172600E04480F0E925E0440190E679F08D58AF79
:1017360003A9077559018A5A895BE4F55C755D034F
:04174600D322C322C5
:03004B00020C3E66
:100C3E00C0E0C083C082C085C084C086758600C0F7
:100C4E00D075D000C000C001C002C003C006C007EE
:100C5E0090E678E030E206755D06020D2890E678A3
:100C6E00E020E10CE55D64026006755D07020D286B
:100C7E00E55D24FE605F14603624FE7003020D19DC
:100C8E0024FC7003020D2524086003020D28AB59C5
:100C9E00AA5AA95BAF5C055C8F82758300120A1C91
:100CAE0090E679F0E55C65587070755D05806B9027
:100CBE00E679E0AB59AA5AA95BAE5C8E82758300C9
:100CCE00120A49755D02E5586401704E90E678E0AF
:100CDE004420F08045E55824FEB55C0790E678E0A8
:100CEE004420F0E55814B55C0A90E678E04440F0F4
:100CFE00755D0090E679E0AB59AA5AA95BAE5C8EA1
:100D0E0082758300120A49055C800F90E678E044F4
:100D1E0040F0755D008003755D005391DFD007D004
:100D2E0006D003D002D001D000D0D0D086D084D04F
:080D3E0085D082D083D0E032A1
:10199800121716E55D24FA600E146006240770F32A
:0C19A800D322E4F55DD322E4F55DD322E8
:1019B40012174AE55D24FA600E146006240770F3DA
:0C19C400D322E4F55DD322E4F55DD322CC
:0300000002143BAC
:0C143B00787FE4F6D8FD75815D02148214
:10092600E709F608DFFA8046E709F208DFFA803EB3
:1009360088828C83E709F0A3DFFA8032E309F608A0
:10094600DFFA8078E309F208DFFA807088828C8308
:10095600E309F0A3DFFA806489828A83E0A3F608BC
:10096600DFFA805889828A83E0A3F208DFFA804C96
:1009760080D280FA80C680D4806980F2803380106D
:1009860080A680EA809A80A880DA80E280CA8033D6
:1009960089828A83ECFAE493A3C8C582C8CCC5834E
:1009A600CCF0A3C8C582C8CCC583CCDFE9DEE7801E
:1009B6000D89828A83E493A3F608DFF9ECFAA9F09D
:1009C600EDFB2289828A83ECFAE0A3C8C582C8CCF3
:1009D600C583CCF0A3C8C582C8CCC583CCDFEADE0C
:1009E600E880DB89828A83E493A3F208DFF980CC6E
:1009F60088F0EF60010E4E60C388F0ED2402B40467
:100A06000050B9F582EB2402B4040050AF2323450D
:060A1600822390097673B3
:100A1C00BB010CE58229F582E5833AF583E022508F
:100A2C0006E92582F8E622BBFE06E92582F8E222D9
:0D0A3C00E58229F582E5833AF583E49322F3
:100A4900F8BB010DE58229F582E5833AF583E8F0E3
:100A5900225006E92582C8F622BBFE05E92582C88F
:020A6900F22277
:100A6B00EF8DF0A4A8F0CF8CF0A428CE8DF0A42E9F
:020A7B00FE2259
:100A7D00EB9FF5F0EA9E42F0E99D42F0EC6480C8F0
:060A8D0064809845F02290
:100A9300EB9FF5F0EA9E42F0E99D42F0E89C45F0B9
:010AA3002230
:100AA400D083D082F8E4937012740193700DA3A3E1
:100AB40093F8740193F5828883E4737402936860F5
:060AC400EFA3A3A380DFF5
:10144700020779E493A3F8E493A34003F68001F23B
:1014570008DFF48029E493A3F85407240CC8C333A6
:10146700C4540F4420C8834004F456800146F6DF75
:10147700E4800B0102040810204080900D46E47EB2
:10148700019360BCA3FF543F30E509541FFEE4936A
:10149700A360010ECF54C025E060A840B8E493A331
:1014A700FAE493A3F8E493A3C8C582C8CAC583CA5C
:1014B700F0A3C8C582C8CAC583CADFE9DEE780BE14
:010E180000D9
:00000001FF
