:0A18EB0000010202030304040505D6
:1007E300E4F55DF55CF55BF55AC203C200C202C2D3
:1007F30001120B297E117F008E0F8F107519117551
:100803001A12750D11750E1C751511751658751B79
:1008130011751C71EE54E07003020927755E0075B3
:100823005F808E608F61C374AD9FFF74119ECF2470
:1008330002CF3400FEE48F598E58F557F556F5551F
:10084300F554F553F552AF59AE58AD57AC56AB55B9
:10085300AA54A953A852C3120ADF5026E55F2555AF
:10086300F582E55E3554F58374CDF0E5552401F545
:1008730055E43554F554E43553F553E43552F55204
:1008830080C4E4F555F554F553F552AF59AE58AD60
:1008930057AC56AB55AA54A953A852C3120ADF50FA
:1008A30031AE54AF55E5612FF582E5603EF583E047
:1008B300FDE55F2FF582E55E3EF583EDF0EF240164
:1008C300F555E43EF554E43553F553E43552F5520A
:1008D30080B9855E0F855F1074002480FF74113426
:1008E300FFFEC3E51A9FF51AE5199EF519C3E51234
:1008F3009FF512E5119EF511C3E5149FF514E51359
:100903009EF513C3E50E9FF50EE50D9EF50DC3E5AC
:10091300169FF516E5159EF515C3E51C9FF51CE519
:100923001B9EF51BD2E843D82090E668E04409F00B
:1009330090E65CE0443DF0D2AFD288D28AC2A8C22E
:10094300AA43E808D2FB90E680E020E105D2081232
:1009530015E490E680E054F7F0538EF8C2033001BB
:10096300051205BFC2013003291210FE5024C20331
:100973001216DF20001690E682E030E704E020E163
:10098300EF90E682E030E604E020E0E41216131272
:070993001905120DBF80C71A
:1005BF0090E6B9E070030206701470030206ED2492
:1005CF00FE700302077024FB700302066A147003A7
:1005DF00020664146073146076240560030207CF6B
:1005EF0012190740030207DB90E6BBE024FE6022EE
:1005FF0014603324FD601114602224067048E50F47
:10060F0090E6B3F0E5108037E51990E6B3F0E51A00
:10061F00802DE51190E6B3F0E5128023E51390E607
:10062F00B3F0E514801990E6BAE0FF12163FAA0660
:10063F00A9077B01EA494B600DEE90E6B3F0EF900E
:10064F00E6B4F00207DB0207D41218CB0207DB1265
:10065F0018F50207DB12187E0207DB1218B9020722
:10066F00DB12190940030207DB90E6B8E0247F6034
:10067F001514601924027063A200E43325E0FFA271
:10068F0002E4334F8041E490E740F0803F90E6BCB6
:10069F00E0547EFF7E00E0D394807C0040047D0117
:1006AF0080027D00EC4EFEED4F24EBF58274183E78
:1006BF00F583E493FF3395E0FEEF24A1FFEE34E6DC
:1006CF008F82F583E0540190E740F0E4A3F090E6C9
:1006DF008AF090E68B7402F00207DB0207D412193E
:1006EF000B40030207DB90E6B8E024FE60162402FD
:1006FF0060030207DB90E6BAE0B40105C20002070F
:10070F00DB0207D490E6BAE0705590E6BCE0547E69
:10071F00FF7E00E0D394807C0040047D0180027D49
:10072F0000EC4EFEED4F24EBF58274183EF583E49A
:10073F0093FF3395E0FEEF24A1FFEE34E68F82F5B1
:10074F0083E054FEF090E6BCE05480131313541F63
:10075F00FFE0540F2F90E683F0E04420F0806D808F
:10076F006412190D506690E6B8E024FE6019240259
:10077F00705A90E6BAE0B40104D200804F90E6BA06
:10078F00E064026047803E90E6BCE0547EFF7E004E
:10079F00E0D394807C0040047D0180027D00EC4E0C
:1007AF00FEED4F24EBF58274183EF583E493FF338F
:1007BF0095E0FEEF24A1FFEE34E68F82F5838008EB
:1007CF00120080500790E6A0E04401F090E6A0E010
:0307DF004480F063
:0107E20022F4
:03005B000212D1BD
:0912D100C0E0C0D075D000C007D8
:1012DA00AF91530780EF6480706253917FE54A644F
:1012EA00016056E5496401702AE544B4010F752886
:1012FA003075490375290153B10F43A00FD3E53364
:10130A0094E0E53294015003754401753200753357
:10131A00008026E54964027020E547B4011B0528D0
:10132A00E528B43A03752830E528B52A0C7549042E
:0C133A0075470053B10F43A00F754A0027
:07134600D007D0D0D0E03247
:030003000213C223
:1013C200C0E0C083C082C0D075D000C004C005C0D8
:1013D20006C00790E6017443F0E548703790F000CC
:1013E20074AAF0A37411F0A374CCF0A374EEF0907D
:1013F200E690E4F090E6917405F0300419AF37AE50
:1014020036AD35AC348F0C8E0B8D0A8C0975080FF6
:10141200D20780021548A283B39283D007D006D0A8
:0C14220005D004D0D0D082D083D0E032BE
:03000B000211AF30
:1011AF00C0E0C0F0C083C082C0D075D000C000C006
:1011BF0001C002C003C004C005C006C00785238C50
:1011CF0085248AE5086016D2831508E508704C90CF
:1011DF00E600E054FDF0000000C283803E30073B84
:1011EF00AF0CAE0BAD0AAC09EF24FFF50CEE34FFDC
:1011FF00F50BED34FFF50AEC34FFF509E4FFFEFDC6
:10120F00FCAB0CAA0BA90AA809C3120ADF700CC207
:10121F000790E600E04402F0000000D007D006D0AF
:10122F0005D004D003D002D001D000D0D0D082D0CE
:06123F0083D0F0D0E03284
:03003300020FFCBD
:040FFC0053D8EF32A5
:101486000123D101244A013E00043400000000C1BA
:1014960007C104012700043F0000000004390000D2
:1014A6000000013DBA0149FF012AFF01283002323E
:1014B6000000044E0000000002450000042E00005B
:1014C600C3500225006401440001290001470002BF
:0314D6002B0000E8
:10183C0085238C85248AE58954F04401F589438EEF
:06184C0008D28CD2A92293
:0617F300C2817F647E004C
:1017F900EF25E0FFEE33FEEF4E6007EF1F70F81E96
:0318090080F52245
:10176600AD07AC06ED4C60147F957E001217F900AC
:0D1776000000000000ED1D70EB1C80E8225B
:1017280090E6187408F000000090E619F000000038
:0F17380090E61AF000000090E61BF0000000227F
:1017470090E6187409F000000090E619F000000018
:0F17570090E61AF000000090E61BF00000002260
:10170400AE0790E678E04480F090E679EEF01217A8
:10171400F5EDF01217F590E678E04440F07F647E32
:04172400000217F9AF
:100B290090E6007412F090E60B7403F00000009058
:100B3900E6047480F00000007402F0000000740400
:100B4900F00000007406F00000007408F0000000D6
:100B5900E4F000000000000090E61274E8F00000E4
:100B690000E490E613F000000090E614F0000000A5
:100B790090E615F000000090E6187408F0000000F7
:100B890090E619F000000090E61AF000000090E6E7
:100B99001BF000000090E6097404F000000090E6E4
:100BA90070E04401F0000000E490E672F0000000FB
:100BB90090E6207402F0000000E490E621F00000C5
:100BC9000090E602F000000090E603F090E6017460
:100BD90043F000000090E61174A0F000000090E6D8
:100BE9005EE04404F000000090E68F7404F0000019
:100BF9000090E61074A0F000000090E65EE0440862
:100C0900F0000000E490E68DF043AF01D20043B25A
:100C19000843B20275B6FF75B1F075B4FF1218FD3D
:100C29001217F3D28112183C756920756A337B0259
:100C39007D107FA01216BA902033E0F54DA3E0F5A0
:100C49002DE54D6401600BE54D64026005E54DB489
:100C59000505753DBAC206E54D64036005E54DB469
:100C69000405753DB8C206E54DB40605753D20D2AB
:100C790006E54D64076005E54DB40805753D30D2BC
:100C890006E54DB40905753D42C206E4F548D2832F
:100C9900754A0153A0F043A04043E8087549019003
:0E0CA9002013F07A207B137D017F480217BCD8
:0E18DD00EF2401FBE43EFA7D027F480217A0D3
:10189300851E82851D83EFF0AB1EAA1D7D017F216E
:0318A3000217BC6D
:1018A600857382857283EFF0AB73AA727D017F2701
:0318B6000217BC5A
:10142E00E53ED39400401A7538FF43A080E53E1385
:10143E00FFC3747F9FF563E53EB4010C75637F8037
:10144E0007E53E700353A07F7EE77FC01218DD9044
:10145E0020137402F0A37480F07A207B137D027F38
:10146E00281217BCE4902013F0A3E563F07A207BDA
:08147E00137D027F280217BC58
:100DBF00E5512401F551E43550F550E4354FF54F29
:100DCF00E4354EF54E0546E54670020545AF31AEAA
:100DDF0030AD2FAC2EAB51AA50A94FA84EC3120A5B
:100DEF00DF701253A0F812142EE4F551F550F54FA1
:100DFF00F54E43A00790E7C4E529F0E546B5261B5D
:100E0F00E545B52516E54924FE600804700812175C
:100E1F00D88003121693E4F545F546E52764027072
:100E2F006FC2832080FD7F057E001210B890E60010
:100E3F00E054FDF085423C85413B85403A853F3982
:100E4F00E47F64FEFDFCAB3CAA3BA93AA839D31260
:100E5F000ADF40217F647E001210B8E53C249CF528
:100E6F003CE53B34FFF53BE53A34FFF53AE53934E1
:100E7F00FFF53980CBAE3BAF3C1210B890E6017452
:100E8F0040F090E600E04402F0D2A8C283E4F527D8
:010E9F002230
:0210FE00D322FB
:02190500D322EB
:02190700D322E9
:10187E0090E680E030E704D2058002C20590E6BA19
:05188E00E0F543D32248
:1018B90090E740E543F0E490E68AF090E68B04F087
:0218C900D32228
:0818F50090E6BAE0F522D322CF
:1018CB0090E740E522F0E490E68AF090E68B04F096
:0218DB00D32216
:02190900D322E7
:02190B00D322E5
:02190D00D322E3
:1000800090E6B9E0120B0300C7B300EBB70131B83B
:100090000192B901B0BB023FBD0281BF0290C00214
:1000A000C3C103CDC20410C5042BC60452C80479D1
:1000B000C904FCCA0529CB057CCD05ABCF031ED0F6
:1000C00003B5D1000005BBC2A890E6017440F00062
:1000D000000090E6047480F00000007402F000005C
:1000E00000E4F0000000D2A802059B90E6BDE0FE0F
:1000F00090E6BCE07C002400F563EC3EF56220064F
:1001000017AD6390E6BEE0FB7EE77569E7756A4070
:10011000AF3D1216BA02051890E6BEE0FB7EE77509
:100120006AE7756B40AD63AC62AF3D12166B0205BA
:1001300018E490E68AF090E68BF090E6A0E020E1EB
:10014000F9E4F564F565AF6574402FF582E434E7B2
:10015000F583E0FE74002FF582E43420F583EEF0A1
:100160000565E565700205646413456470D89020E8
:1001700000E07003120000902000E0B401031200C0
:1001800000902000E0640260030205BD120000023E
:1001900005BDE490E68AF090E68BF090E6A0E020C2
:1001A000E1F9E53DC313FF7AE77B407D0302057764
:1001B000E490E68AF090E68BF090E6A0E020E1F98A
:1001C00078137C207D017B0120062D7AE679BC7EA8
:1001D000007F01120A6A90E6BEE0FF7E0078147C80
:1001E000207D017B017AE77940120A6AE53DC3135D
:1001F000FF90E6BEE004803F7AE679BD7E007F0195
:10020000120A6A78147C207D017B017AE679BC7E33
:10021000007F01120A6A90E6BEE0FF7E0078157C3E
:10022000207D017B017AE77940120A6AE53DC3131C
:10023000FF90E6BEE02402FD7A207B13020577E4FE
:1002400090E68AF090E68BF090E6A0E020E1F9904D
:10025000E740E0FCA3E0FDA3E0FEA3E0F5378E3627
:100260008D358C34E4FFFEFDFCAB37AA36A935A8EA
:1002700034C3120ADF7005C204020301D204020370
:1002800001E4F508C20790E600E04402F000000037
:1002900090E6BAE030E01190E6BCE05490C4540F10
:1002A000FFE5B154F64FF5B190E6BAE030E11190B8
:1002B000E6BCE05460C4540FFFE5B154F94FF5B10A
:1002C0000205B0E490E68AF090E68BF090E6A0E0BC
:1002D00020E1F990E740E0FCA3E0FDA3E0FEA3E00D
:1002E000F5378E368D358C34E4FFFEFDFCAB37AA36
:1002F00036A935A834C3120ADF7004C2048002D2C2
:1003000004E4F508C20775480190E600E04402F0F5
:10031000000000E490E68AF00000000205B5E490D9
:10032000E68AF090E68BF090E6A0E020E1F990E616
:100330008BE0756400F565C298D39400E564648031
:10034000948050030205BD90E740E0B4FF1253A033
:10035000F043A040754A01754901E4F5440205BD2A
:1003600090E740E0F52A652870030205BD53A0F030
:1003700043A040E4F547E0B40A03752A6190E740E2
:10038000E0B40B03752A6290E740E0B40C03752AD1
:100390006390E740E0B40D03752A6490E740E0B451
:1003A0000E03752A6590E740E0B40F03752A667561
:1003B00049020205BD90E740E529F0000000E49005
:1003C000E68AF000000090E68B040205A590E74065
:1003D00074E9F0A3740CF0E4A3F0A3F0A3F0A20678
:1003E00033A3F0A3E52DF0A3E53DF0A3E54DF030F8
:1003F0000505E4A3F0800690E74974FFF0000000D3
:10040000E490E68AF000000090E68B740A0205A5ED
:100410007EE77F401218DD000000E490E68AF000DD
:10042000000090E68B7404F00205BDE490E68AF0CB
:1004300090E68BF090E6A0E020E1F990E740E0FD47
:100440007F4E12170490E741E0FD7F42121704022D
:1004500005BDE490E68AF090E68BF090E6A0E020FF
:10046000E1F990E740E014600C14600B2402600393
:100470000205BD80258041805FE490E68AF090E629
:100480008BF090E6A0E020E1F990E740E0146028CE
:10049000146045240260030205BD7523F4752453DE
:1004A00090E6007402F0E47531507530C3F52FF515
:1004B0002EF525752619803E7523E87524A590E64E
:1004C00000740AF07531A0753086752F01752E0005
:1004D000752500752632801E7523D175244A90E655
:1004E000007412F075314075300D752F03752E00B4
:1004F0007525007526641218FD0205BD90E6BCE066
:10050000756200F563FD90E6BEE0FB7EE77569E786
:10051000756A407FA01216BAE490E68AF0000000E7
:1005200090E6BEE090E68B807CE490E68AF090E670
:100530008BF090E6A0E020E1F990E6BCE0D39407D0
:10054000407B78137C207D017B017AE679BC7E00BC
:100550007F01120A6A90E6BEE0FF7E0078147C20DC
:100560007D017B017AE77940120A6A90E6BEE004D9
:10057000FD7A207B137F501217BC8041E490E68AFD
:10058000F090E68BF090E6A0E020E1F990E740E003
:1005900070051217288003121747E490E68AF000CE
:1005A000000090E68BF000000080121217F3D28159
:0E05B000E490E68AF090E68BF08002D322C33E
:0105BE00221A
:10180C00C0E0C083C082D2015391EF90E65D7401B9
:08181C00F0D082D083D0E0324D
:10185200C0E0C083C0825391EF90E65D7404F0D083
:0618620082D083D0E032C9
:10186800C0E0C083C0825391EF90E65D7402F0D06F
:0618780082D083D0E032B3
:1014DA00C0E0C083C08290E680E030E70E850D113F
:1014EA00850E12851513851614800C85151185161F
:1014FA0012850D13850E145391EF90E65D7410F06A
:07150A00D082D083D0E03253
:10182400C0E0C083C082D2035391EF90E65D740898
:08183400F0D082D083D0E03235
:10151100C0E0C083C08290E680E030E70E850D1107
:10152100850E12851513851614800C8515118516E7
:1015310012850D13850E145391EF90E65D7420F022
:07154100D082D083D0E0321C
:01190F0032A5
:0119100032A4
:0119110032A3
:0119120032A2
:10134D00C0E0C083C082C0D075D000C000C004C052
:10135D0005C006C007E4FFFEFDE539FC7818120A4A
:10136D00F090E7C4EFF0E4FFFEE53AFDE4FC781001
:10137D00120AF0A3EFF0E4FFE53BFEE4FDFC780874
:10138D00120AF0A3EFF0E53CFFA3EFF00000009090
:10139D00E68F7404F00000005391EF90E65FE04497
:1013AD0004F0D007D006D005D004D000D0D0D08224
:0513BD00D083D0E032F6
:100EA000C0E0C083C082C0D075D000C004C005C0FF
:030EB00006C00772
:100EB30090E6A1E020E1F990E780E024F0601C14C3
:100EC300603014605D2413605E24FE706690E782D8
:100ED300E0F53890E781E0F53E805890E781E0FC4B
:100EE300A3E0FDA3E0FEA3E0F5428E418D408C3FDD
:100EF3008041752701C2A8D28390E600E04402F046
:100F030000000090E6017440F000000090E60474D5
:100F130080F00000007402F0000000E4F000000024
:100F23008011752702800C753C64753B00753A008F
:100F330075390000000090E68DE4F05391EF90E6E0
:050F43005FE04408F02E
:100F4800D007D006D005D004D0D0D082D083D0E04E
:010F58003266
:0119130032A1
:0119140032A0
:01191500329F
:01191600329E
:01191700329D
:01191800329C
:01191900329B
:01191A00329A
:01191B003299
:01191C003298
:01191D003297
:01191E003296
:01191F003295
:011920003294
:011921003293
:011922003292
:011923003291
:011924003290
:01192500328F
:01192600328E
:01192700328D
:01192800328C
:01192900328B
:01192A00328A
:01192B003289
:01192C003288
:01192D003287
:01192E003286
:01192F003285
:011930003284
:0416BA008F668B6844
:1016BE00902035EDF0E566C313FF7A207B357D0172
:1016CE001217BCE566C313FFAB6AAA69AD680217B1
:0116DE00A06B
:04166B008F668B6992
:10166F00EC902035F0EDA3F0E566C313FF7A207BF5
:10167F00357D021217BCE566C313FFAB6BAA6AADCB
:04168F00690217A035
:10178300A907EC902013F0EDA3F0EAA3F0EBA3F08C
:0D179300E9C313FF7A207B137D040217BC0D
:100F5900052CE52C7002052B6408452B7004F52B34
:100F6900F52CE52C452B700843B12053B1EF80696E
:100F7900E52C6401452B700543B120800BE52C64F9
:100F890002452B700B53B1DF53B1EF43B140805F82
:100F9900E52C6403452B700B53B1DF53B1EF43B11B
:100FA900408024E52C6404452B700B53B1DF53B109
:100FB900EF53B1BF8011E52C6405452B700D53B17A
:100FC900DF43B11053B1BF43B18022E52C6406451C
:100FD9002B700B53B1DF43B11053B1BF8011E52C16
:100FE9006407452B700C43B12043B11053B1BF5373
:030FF900B17F22A3
:1017D800E4F529E54964036011E5496405600B12E5
:0B17E8000F590533E533700205322273
:10169300E54964046020E5496405601A0533E533D0
:1016A30070020532120F59E53364A045327007F515
:0716B30032F53375470122F7
:10110000120100020000004018163109000001021F
:1011100000010A06000200000040010009023C0034
:1011200001010080FA0904000006FF000000070525
:101130008202000200070501020002000705020208
:1011400000020007050602000200070581020002F6
:101150000007058602000200090219000101008053
:10116000FA0904000001FF000000070582024000A8
:10117000000403090414035100480043002D0043F8
:10118000004300440020002000240351004800597F
:10119000002D006D0069006E006900430061006D64
:0F11A0000035002000200020002000200000006B
:1016130090E682E030E004E020E60B90E682E030E2
:10162300E119E030E71590E680E04401F07F147E95
:0C163300001210B890E680E054FEF02297
:1016DF0090E682E044C0F090E681F043870100007D
:0416EF0000000022D5
:1015E40030080990E680E0440AF0800790E680E045
:1015F4004408F07FDC7E051210B890E65D74FFF0BD
:0F16040090E65FF05391EF90E680E054F7F0220C
:1010B8008E628F6390E600E054187012E563240195
:1010C800FFE43562C313F562EF13F563801590E60C
:1010D80000E05418FFBF100BE56325E0F563E562F7
:1010E80033F562E5631563AE62700215624E600502
:0610F8001216F380EE2247
:0818FD00E4F571D2E9D2AF223B
:1015480090E678E020E6F9C2E990E678E04480F099
:10155800EF25E090E679F090E678E030E0F990E663
:1015680078E04440F090E678E020E6F990E678E00C
:0615780030E1D6D2E922A9
:1015B200A90790E678E020E6F9E571702390E678D5
:1015C200E04480F0E925E090E679F08D6CAF03A964
:1015D20007756D018A6E896FE4F570757101D3220A
:0215E200C32222
:10157E00A90790E678E020E6F9E571702590E67807
:10158E00E04480F0E925E0440190E679F08D6CAFFF
:10159E0003A907756D018A6E896FE4F57075710385
:0415AE00D322C3225F
:03004B00020CB7ED
:100CB700C0E0C083C082C085C084C086758600C07E
:100CC700D075D000C000C001C002C003C006C00775
:100CD70090E678E030E206757106020DA190E6789D
:100CE700E020E10CE57164026006757107020DA151
:100CF700E57124FE605F14603624FE7003020D92D6
:100D070024FC7003020D9E24086003020DA1AB6D45
:100D1700AA6EA96FAF7005708F82758300120A9053
:100D270090E679F0E570656C7070757105806B9071
:100D3700E679E0AB6DAA6EA96FAE708E82758300FF
:100D4700120ABD757102E56C6401704E90E678E099
:100D57004420F08045E56C24FEB5700790E678E006
:100D67004420F0E56C14B5700A90E678E04440F052
:100D770075710090E679E0AB6DAA6EA96FAE708EC3
:100D870082758300120ABD0570800F90E678E044F3
:100D970040F075710080037571005391DFD007D063
:100DA70006D003D002D001D000D0D0D086D084D0D6
:080DB70085D082D083D0E03228
:02163F00A907F9
:10164100AE1BAF1C8F828E83A3E064037017AD01C4
:1016510019ED7001228F828E83E07C002FFDEC3E1C
:09166100FEAF0580DF7E007F0072
:01166A00225D
:1017A00012157EE57124FA600E146006240770F3AA
:0C17B000D322E4F571D322E4F571D322BA
:1017BC001215B2E57124FA600E146006240770F35A
:0C17CC00D322E4F571D322E4F571D3229E
:1016F3007400F58690FDA57C05A3E582458370F90A
:0117030022C3
:03004300021000A8
:0300530002100098
:1010000002180C000218680002185200021824008E
:101010000214DA000215110002190F000219100063
:10102000021911000219120002134D00020EA00055
:1010300002191300021914000219150002191600F2
:1010400002191700021910000219180002191900DC
:1010500002191A0002191B0002191C0002191D00B6
:1010600002191E00021910000219100002191000C6
:1010700002191F0002192000021921000219220082
:101080000219230002192400021925000219260062
:1010900002192700021928000219290002192A0042
:1010A00002192B0002192C0002192D0002192E0022
:0810B00002192F0002193000A3
:03000000021245A4
:0C124500787FE4F6D8FD75817302128CEE
:10099A00E709F608DFFA8046E709F208DFFA803E3F
:1009AA0088828C83E709F0A3DFFA8032E309F6082C
:1009BA00DFFA8078E309F208DFFA807088828C8394
:1009CA00E309F0A3DFFA806489828A83E0A3F60848
:1009DA00DFFA805889828A83E0A3F208DFFA804C22
:1009EA0080D280FA80C680D4806980F280338010F9
:1009FA0080A680EA809A80A880DA80E280CA803362
:100A0A0089828A83ECFAE493A3C8C582C8CCC583D9
:100A1A00CCF0A3C8C582C8CCC583CCDFE9DEE780A9
:100A2A000D89828A83E493A3F608DFF9ECFAA9F028
:100A3A00EDFB2289828A83ECFAE0A3C8C582C8CC7E
:100A4A00C583CCF0A3C8C582C8CCC583CCDFEADE97
:100A5A00E880DB89828A83E493A3F208DFF980CCF9
:100A6A0088F0EF60010E4E60C388F0ED2402B404F2
:100A7A000050B9F582EB2402B4040050AF23234599
:060A8A0082239009EA73CB
:100A9000BB010CE58229F582E5833AF583E022501B
:100AA00006E92582F8E622BBFE06E92582F8E22265
:0D0AB000E58229F582E5833AF583E493227F
:100ABD00F8BB010DE58229F582E5833AF583E8F06F
:100ACD00225006E92582C8F622BBFE05E92582C81B
:020ADD00F22203
:100ADF00EB9FF5F0EA9E42F0E99D42F0E89C45F06D
:010AEF0022E4
:100AF000E8600FECC313FCED13FDEE13FEEF13FFE4
:030B0000D8F12207
:100B0300D083D082F8E4937012740193700DA3A381
:100B130093F8740193F5828883E473740293686095
:060B2300EFA3A3A380DF95
:101251000207E3E493A3F8E493A34003F68001F2C9
:1012610008DFF48029E493A3F85407240CC8C3339E
:10127100C4540F4420C8834004F456800146F6DF6D
:10128100E4800B0102040810204080901486E47E63
:10129100019360BCA3FF543F30E509541FFEE49362
:1012A100A360010ECF54C025E060A840B8E493A329
:1012B100FAE493A3F8E493A3C8C582C8CAC583CA54
:1012C100F0A3C8C582C8CAC583CADFE9DEE780BE0C
:0114D9000012
:00000001FF
