:0A16BC000001020203030404050507
:030A7D0001600015
:10052200E4F513F512F511F510C203C200C202C2BE
:10053200011213511215E1120B677E107F008E63B8
:100542008F64756B10756C1275611075621C75691C
:1005520010756A4A756D10756E78EE54E07003027C
:10056200066C7514007515808E168F17C374A29FC2
:10057200FF74109ECF2402CF3400FEE48F0F8E0E44
:10058200F50DF50CF50BF50AF509F508AF0FAE0EF2
:10059200AD0DAC0CAB0BAA0AA909A808C31208013D
:1005A2005026E515250BF582E514350AF58374CD41
:1005B200F0E50B2401F50BE4350AF50AE43509F5FB
:1005C20009E43508F50880C4E4F50BF50AF509F5E8
:1005D20008AF0FAE0EAD0DAC0CAB0BAA0AA909A861
:1005E20008C31208015031AE0AAF0BE5172FF5828E
:1005F200E5163EF583E0FDE5152FF582E5143EF59F
:1006020083EDF0EF2401F50BE43EF50AE43509F53C
:1006120009E43508F50880B985146385156474000A
:100622002480FF741034FFFEC3E56C9FF56CE56B0C
:100632009EF56BC3E5669FF566E5659EF565C3E5C8
:10064200689FF568E5679EF567C3E5629FF562E519
:10065200619EF561C3E56A9FF56AE5699EF569C326
:10066200E56E9FF56EE56D9EF56DD2E843D820905C
:10067200E668E04409F090E65CE0443DF0D2AF90D9
:10068200E680E020E105D20812146A90E680E05488
:10069200F7F0538EF8C2033001051202FEC2013098
:1006A2000329120FFE5024C20312159A200016903D
:1006B200E682E030E704E020E1EF90E682E030E617
:1006C20004E020E0E41214991217AD12113080C731
:1002FE0090E6B9E070030203AF14700302042C24DD
:10030E00FE70030204AF24FB70030203A9147003F2
:10031E000203A31460731460762405600302050EB5
:10032E001217AF400302051A90E6BBE024FE6022CE
:10033E0014603324FD601114602224067048E563B6
:10034E0090E6B3F0E5648037E56B90E6B3F0E56CCC
:10035E00802DE56590E6B3F0E5668023E56790E6CF
:10036E00B3F0E568801990E6BAE0FF1214C5AA064C
:10037E00A9077B01EA494B600DEE90E6B3F0EF90D2
:10038E00E6B4F002051A02051312168102051A12BE
:10039E00174102051A1212D702051A12166F02051C
:1003AE001A1217B1400302051A90E6B8E0247F60D6
:1003BE001514601924027063A200E43325E0FFA235
:1003CE0002E4334F8041E490E740F0803F90E6BC7A
:1003DE00E0547EFF7E00E0D394807C0040047D01DB
:1003EE0080027D00EC4EFEED4F24BCF58274163E6D
:1003FE00F583E493FF3395E0FEEF24A1FFEE34E6A0
:10040E008F82F583E0540190E740F0E4A3F090E68C
:10041E008AF090E68B7402F002051A020513121789
:10042E00B3400302051A90E6B8E024FE60162402DB
:10043E00600302051A90E6BAE0B40105C200020597
:10044E001A02051390E6BAE0705590E6BCE0547EB1
:10045E00FF7E00E0D394807C0040047D0180027D0D
:10046E0000EC4EFEED4F24BCF58274163EF583E48F
:10047E0093FF3395E0FEEF24A1FFEE34E68F82F575
:10048E0083E054FEF090E6BCE05480131313541F27
:10049E00FFE0540F2F90E683F0E04420F0806D8053
:1004AE00641217B5506690E6B8E024FE6019240277
:1004BE00705A90E6BAE0B40104D200804F90E6BACA
:1004CE00E064026047803E90E6BCE0547EFF7E0012
:1004DE00E0D394807C0040047D0180027D00EC4ED0
:1004EE00FEED4F24BCF58274163EF583E493FF3384
:1004FE0095E0FEEF24A1FFEE34E68F82F5838008AF
:10050E00120080500790E6A0E04401F090E6A0E0D3
:03051E004480F026
:0105210022B7
:03003300020EFCBE
:040EFC0053D8EF32A6
:1015E100E490E608F075C83443985053877F75CB73
:0915F100FF75CA64C298D2992268
:10135100753509E4F53EF53FF52FC28CF58C758A9C
:1013610001E58954F04401F589538EF7C28DD28C81
:10137100D2A9C28E758DDB758BACE589540F4410F3
:0C138100F589438E10C28FD28ED2AB22B1
:03001B0002138D40
:10138D00C0E0C0D075D000C000C007758DDB758B77
:10139D00AC30981E63B002E535C394095012AF35D9
:1013AD0074502FF8A6990535E535B4090375590024
:0B13BD00C298D007D000D0D0D0E032A2
:03000B00020E786A
:0B0E7800C0E0C0D075D000C000C00773
:100E8300758C00758A01E52F601030990D152FAF11
:100E93002F743A2FF8E6C299F599E52F7052E53E83
:100EA3007046E53F146032249D6019246470393024
:100EB300993EE53564097038C29975996EF53E75AA
:100EC3003F96802C309929C299759973E53F153F58
:100ED3007002153E7535008017D299E535C3940924
:100EE3005003755901753509E53F153F7002153EED
:090EF300D007D000D0D0D0E032CD
:101000001201000200000040C01671290000010218
:1010100000010A06000200000040010009022E0043
:1010200001010080FA0904000004FF000000070528
:1010300001024000000705820200020007050202CB
:101040000002000705810240000009022E00010194
:101050000080FA0904000004FF00000007050102F7
:10106000400000070582024000000705020200025E
:101070000007058102400000040309041003510029
:10108000480059002D00430043004400160351005E
:10109000480059002D003200500052004F0020003F
:0410A000200000002C
:100A8000608030000202020202020207000000023F
:100A9000000002001B3A1A020004000000000000DF
:100AA0000000003F020202020202020700000002F0
:100AB000000002001B3A021A1804000000000000A7
:100AC0000000003F033A030306060307000000028C
:100AD000000002001B3A1A0200040000000000009F
:100AE0000000003F035A0303030303070000000252
:100AF000000002001B3A021A180400000000000067
:100B00000000003F6024308700000000000000006B
:100B100000000000000000000000000000000000D5
:100B2000000000000000000000000000473080804E
:060B3000000000CA4E00A7
:100D010090E60174CAF090E6F574FFF0903080E04F
:100D110090E6F3F0903081E090E6C3F0903082E00D
:100D210090E6C1F0903083E090E6C2F0903085E02B
:100D310090E6C0F0903086E090E6F4F075AF07746D
:100D410030F59A7400F59B759DE4E4F59EFF90E6FD
:100D51007BE090E67CF00FBF80F490E67174FFF0C9
:100D6100F5B490E672E04480F043B680000000E400
:100D710090E6C4F000000090E6C5F0903087E09066
:100D8100E6C6F0903088E090E6C7F0903089E090B8
:100D9100E6C8F090308AE090E6C9F090308BE090A0
:100DA100E6CAF090308CE090E6CBF090308DE09088
:0B0DB100E6CCF090308EE090E6CDF034
:010DBC002214
:03004300020F00A9
:03005300020F0099
:100F000002161300021659000216430002162B00A7
:100F10000213FF00021314000217B7000217B800F3
:100F20000217B9000217BA000214350002119D0021
:100F30000217BB000217BC000217BD000217BE005B
:100F40000217BF000217B8000217C0000217C10045
:100F50000217C2000217C3000217C4000217C5001F
:100F60000217C6000217B8000217B8000217B8002F
:100F70000217C7000217C8000217C9000217CA00EB
:100F80000217CB000217CC000217CD000217CE00CB
:100F90000217CF000217D0000217D1000217D200AB
:100FA0000217D3000217D4000217D5000217D6008B
:080FB0000217D7000217D80058
:1014990090E682E030E004E020E60B90E682E0305E
:1014A900E119E030E71590E680E04401F07F147E11
:0C14B90000120FB890E680E054FEF02214
:10159A0090E682E044C0F090E681F04387010000C3
:0415AA00000000221B
:10146A0030080990E680E0440AF0800790E680E0C0
:10147A004408F07FDC7E05120FB890E65D74FFF039
:0F148A0090E65FF05391EF90E680E054F7F02288
:0214C500A90775
:1014C700AE6DAF6E8F828E83A3E064037017AD019C
:1014D70019ED7001228F828E83E07C002FFDEC3E98
:0914E700FEAF0580DF7E007F00EE
:0114F00022D9
:100FB8008E1C8F1D90E600E054187012E51D240168
:100FC800FFE4351CC313F51CEF13F51D801590E6DF
:100FD80000E05418FFBF100BE51D25E0F51DE51CCA
:100FE80033F51CE51D151DAE1C7002151C4E600561
:060FF8001215AE80EE228E
:1015AE007400F58690FDA57C05A3E582458370F950
:0115BE00220A
:100B3600C186012F00013509023E0000C1050223CE
:100B460000000230104001481E014A000146000123
:100B56003700025E005702320181045A000000008D
:1015BF008E1C8F1DE51D451C60177F957E00121236
:1015CF0042000000000000E51D151D70E7151C808E
:0215DF00E32205
:10125900E4F5B375B5FF90E60174C8F0E4F518F547
:101269001943B0027F1E7E00120FB853B0FD7F1ED6
:101279007E00120FB80519E51970020518C3940507
:0E128900E5186480948040D990E60174CAF0A4
:011297002234
:10129800E4F5B375B5FF90E60174C8F0E4F56FF5B1
:1012A8007043B0087F0A7E00120FB853B0F77F0A68
:1012B8007E00120FB80570E5707002056FC39405C3
:0E12C800E56F6480948040D990E60174CAF00E
:0112D60022F5
:100B670090E600E054E74410F00000000000009019
:100B7700E61074A0F000000090E60B7401F090E618
:100B87001274E0F0000000E490E613F0000000901B
:100B9700E614F000000090E615F000000090E6185B
:100BA700740CF000000090E6D27402F090E6047432
:100BB70080F00000007402F0000000E4F000000084
:100BC700120D01E490E671F075B4FF90E672F075CE
:100BD700B6FF75B1FF90E670F075B2FFD2A2D2A151
:100BE7001216A475230275240000000090E6107405
:100BF700A0F000000000000090E611F00000009057
:100C0700E65EE04408F0000000E490E68DF090E630
:100C17005EE04404F0000000E490E68FF053B1F783
:100C27007F9AFE12170212125990E60174C8F02239
:10113000E55D2401F55DE4355CF55CE4355BF55B6C
:10114000E4355AF55AE47F01FEFDFCAB5DAA5CA9CB
:101150005BA85AC312080170031216967F407E0DD9
:101160007D037C00AB5DAA5CA95BA85AD312080181
:101170004009E4F55DF55CF55BF55A30041C90E63A
:101180000174CAF0E534B40103120949E534B4022C
:0D1190000312081290E60174C8F0C2042298
:020FFE00D322FC
:0217AD00D32245
:0217AF00D32243
:1012D70090E680E030E71800000090E6207402F006
:1012E700000000E490E621F0000000D2068016001E
:1012F7000000E490E620F000000090E6217440F042
:0D130700000000C20690E6BAE0F547D322D0
:10166F0090E740E547F0E490E68AF090E68B04F0CF
:02167F00D32274
:0817410090E6BAE0F527D3227F
:1016810090E740E527F0E490E68AF090E68B04F0DD
:02169100D32262
:0217B100D32241
:0217B300D3223F
:0217B500D3223D
:10008000E4F518F51990E6B9E0244B6061147003AB
:1000900002023824F4700302025E14700302029418
:1000A0001470030202C5241160030202FAE490E610
:1000B0008AF090E68BF090E6A0E020E1F990E68BE4
:1000C000E0F518E4F5B390E60174CAF0E490E6C3F5
:1000D000F090E6C2F0D20400000090E6047480F0D4
:1000E0000000007402F0000000E4F00202FCE49062
:1000F000E68AF090E68BF090E6A0E020E1F990E649
:100100008BE0F518D3943F4024E4F5197440251989
:10011000F582E434E7F583E0FF74AB2519F582E45A
:100120003430F583EFF00519E519B440DF7F9A7E8E
:10013000001217029030ABE0FF7E0012170B9030D8
:10014000ABE0FF7E001217149030ABE0FF7E001290
:10015000171D9030ACE075F004A4FFAEF012172626
:100160009030ACE075F004A4FFAEF012172F903081
:10017000ACE075F004A4FFAEF01217389030B0E098
:10018000C3940250139030CCE090E6C07005744EDA
:10019000F08016749CF080119030CCE090E6C07036
:1001A00005749FF08003749DF09030CEE0F5399097
:1001B00030CBE0F5389030CFE0F5499030D9E0F51C
:1001C00036A3E0FEA3E07C002400F526EC3EF525F6
:1001D0009030B1E0F534E53470037534019030B6F9
:1001E000E0FEA3E07C002400F529EC3EF528A3E026
:1001F000FEA3E02400F54CEC3EF54B9030B2E0FE5F
:10020000A3E02400F531EC3EF530A3E0FEA3E024AA
:1002100000F54FEC3EF54E9030BCE0FEA3E024002C
:10022000F545EC3EF5449030BAE0FEA3E02400F53D
:100230002EEC3EF52D0202FCE4F51974AB2519F500
:1002400082E43430F583E0FF74402519F582E4340C
:10025000E7F583EFF00519E519B40ADF805490E75C
:100260004074B5F0A37416F0A3740CF0A37426F0D8
:10027000A37407F0A374EEF0A37401F0A37403F069
:10028000A37453F0300605E4A3F0800690E74974A8
:10029000FFF0801EE4F51974502519F8E6FF74404C
:1002A0002519F582E434E7F583EFF00519E519B473
:1002B0000AE5000000E490E68AF000000090E68B7A
:1002C000740AF08037E490E68AF090E68BF090E6CE
:1002D000A0E020E1F990E68BE0F518D39402401CF1
:1002E00090E742E0F53A90E741E0F53B90E740E0E7
:0D02F000F53C753D78752F048002D322C3C4
:0102FD0022DE
:10161300C0E0C083C082D2015391EF90E65D7401B4
:08162300F0D082D083D0E03248
:10164300C0E0C083C0825391EF90E65D7404F0D094
:0616530082D083D0E032DA
:10165900C0E0C083C0825391EF90E65D7402F0D080
:0616690082D083D0E032C4
:1013FF00C0E0C083C082856965856A66856682851F
:10140F006583A37402F0856167856268856882854C
:10141F006783A37407F05391EF90E65D7410F0D0DB
:06142F0082D083D0E03200
:10162B00C0E0C083C082D2035391EF90E65D740893
:08163B00F0D082D083D0E03230
:10131400C0E0C083C08290E680E030E7208561654C
:10132400856266856682856583A37402F085696734
:10133400856A68856882856783A37407F05391EF93
:0D13440090E65D7420F0D082D083D0E032BE
:0117B70032FF
:0117B80032FE
:0117B90032FD
:0117BA0032FC
:10143500C0E0C083C082C2AF90E7C0E550F0A3E52D
:1014450051F0A3E556F000000090E68F7403F0001C
:1014550000005391EF90E65FE04404F0D2AFD082F4
:05146500D083D0E0324D
:0D119D00C0E0C083C082C0D075D000C00784
:1011AA00C2AF90E6A1E020E1F990E780E0FF700489
:1011BA00F5228027BF011C90E781E06548601CE0AA
:1011CA00F548753A0585483B85563C753D78752F37
:1011DA00048008BFFF05D20775220000000090E6D0
:0F11EA008DE4F05391EF90E65FE04408F0D2AF50
:0B11F900D007D0D0D082D083D0E032ED
:0117BB0032FB
:0117BC0032FA
:0117BD0032F9
:0117BE0032F8
:0117BF0032F7
:0117C00032F6
:0117C10032F5
:0117C20032F4
:0117C30032F3
:0117C40032F2
:0117C50032F1
:0117C60032F0
:0117C70032EF
:0117C80032EE
:0117C90032ED
:0117CA0032EC
:0117CB0032EB
:0117CC0032EA
:0117CD0032E9
:0117CE0032E8
:0117CF0032E7
:0117D00032E6
:0117D10032E5
:0117D20032E4
:0117D30032E3
:0117D40032E2
:0117D50032E1
:0117D60032E0
:0117D70032DF
:0117D80032DE
:060C37008F1A8C1B8D1CBE
:100C3D00531A0753B1FE7F0A7E00121242E4F51DCE
:100C4D00F51EC37402951EFFE51AA807088002C39E
:100C5D0013D8FC30E00543B104800353B1FB7F0A88
:100C6D007E0012124243B1027F0A7E0012124253DD
:100C7D00B1FD7F0A7E00121242051EE51E700205AF
:100C8D001DC39403E51D6480948040B6E4F51DF505
:100C9D001EC37409951EFFE51CAE1BA80708800531
:100CAD00CEC313CE13D8F930E00543B104800353FE
:100CBD00B1FB7F0A7E0012124243B1027F0A7E0011
:100CCD0012124253B1FD7F0A7E00121242051EE53B
:100CDD001E7002051DC3940AE51D6480948040B109
:100CED0043B1017F0A7E0012124253B1FE7F0A7E8C
:040CFD00000212429D
:09170200AD07AC06E4FF020C3750
:09170B00AD07AC067F04020C37A7
:09171400AD07AC067F05020C379D
:09171D00AD07AC067F06020C3793
:09172600AD07AC067F01020C378F
:09172F00AD07AC067F02020C3785
:09173800AD07AC067F03020C377B
:101204007E001212421216E47F017E001212421274
:1012140016EE7F017E0012124212179D7F017E009E
:101224001212421217A97F017E001212421216DA1C
:0E1234007F017E001212421216F87F017E002A
:10124200EF7803C333CE33CED8F9FFEF4E6007EF0A
:071252001F70F81E80F52259
:071749005380F75380DF22FB
:071750005380F743802022C3
:0717570043800843802022BB
:07175E005380FE5380FB22C3
:071765005380FE43800422C3
:07176C0043800143800422C9
:04179D0053807F22D4
:0417A10043808022DF
:0417A5005380BF228C
:0417A9004380402217
:071773005380F75380EF22C1
:07177A005380F743801022A9
:0717810043800843801022A1
:071788005380FE5380FD2297
:07178F005380FE438002229B
:0717960043800143800222A1
:0A16C6005380F75380DF5380EF22BA
:0A16D0005380FE5380FB5380FD227F
:0A16DA005380F74380204380102264
:0A16E4005380FE438004438002227D
:0A16EE00438008438020438010224F
:0A16F8004380014380044380022276
:0C16A4001216DA1217A11216F80217A590
:1014F1001216A47F0A1212041217A57F147E00127D
:1015010012421216C612123E1217A17F057E001258
:0C15110012421216DA7F147E0002124211
:0316930012169696
:0E1696007F011212041217A512123E0217A1B4
:1015FA007F027E00121242E4FDFC1216960DBD0017
:08160A00010CBC04F5BD1AF24D
:0116120022B5
:0C16B000C2A17F027E00121242D2A122D1
:100DBD001217A11216EE1216F81217A9E4FFFEE58E
:100DCD0041FDE4FCFB7A01F9F812076FE4FB7A01AF
:100DDD00F9F812076F8F2AE4FFE542FEE4FDFCFBF4
:100DED007A01F9F812076F8F2CE543FF8F2BE52E53
:100DFD00452D70031216B0E538B40102C2A275225A
:100E0D0001E52A75F040A485F01AF51BAF227E008E
:100E1D00AC1AAD1B1206D2D3EF9400EE9400401124
:100E2D007F007E041215BFE51B151B70DF151A80A0
:100E3D00DB751A00852C1BAF227E00AC1AAD1B1280
:100E4D0006D2D3EF9400EE940040117F007E011284
:100E5D0015BFE51B151B70DF151A80DBAF2B7E0050
:0A0E6D00120FB8E538B40102D2A25A
:010E77002258
:10151D00AD07AC06D3ED9400EC9400401E00000026
:10152D00EE90E6D0F0000000ED90E6D1F000000066
:0C153D0075BB04000000E5BB30E7FB229A
:0813C8008C1A8D1BAB07AA066D
:1013D000E4FDFCC3ED951BEC951A5022EA90E6D093
:1013E000F0000000EB90E6D1F000000075BB0600B5
:0E13F0000000E5BB30E7FB0DBD00010C80D511
:0113FE0022CC
:10154900AD07AC06000000ED25E0EC3390E6D0F0E5
:10155900000000ED25E090E6D1F000000075BB0425
:09156900000000E5BB30E7FB22A5
:10157200000000E53125E0E5303390E6D0F00000D0
:1015820000E53125E090E6D1F000000075BB0400D3
:081592000000E5BB30E7FB227D
:100949009030AEE0FFE4FCFDFEFB7A01F9F81206F7
:10095900E4C004C005C006C0079030ADE0FFE4FC68
:10096900FDFEFBFA7901F81206E4D003D002D001AA
:10097900D000EF2BFBEE3AFAED39F9EC38F890306C
:10098900AFE0FFE4FCFDFEEB2FF543EE3AF542ED57
:1009990039F541EC38F540E47F64AB43AA42A941FB
:1009A900A840C31208015005754901801BE4F549A7
:1009B900E543249CF543E54234FFF542E54134FF24
:1009C900F541E54034FFF540C207752201E549705C
:1009D90008120DBD1215FA80061215FA120DBD1274
:1009E90014F1300703020A7CE4F518F519C3E51977
:1009F9009529E5189528500D1216960519E51970CF
:100A0900EC051880E89030CCE0700843B1087D28E7
:100A1900FC800743B1087DC87C007F1C7E0312134C
:100A2900C853B1F7D3E5269400E52594004007AFF4
:100A390026AE25121549E4FDFCC3ED954FEC954E04
:100A4900500D1215721216960DBD00010C80EAE4C4
:100A5900F518F519C3E519954CE518954B500D1284
:100A690016960519E51970EC051880E8AF45AE44EE
:030A790012151D36
:010A7C002257
:100812009030AEE0FFE4FCFDFEFB7A01F9F812062F
:10082200E4C004C005C006C0079030ADE0FFE4FCA0
:10083200FDFEFBFA7901F81206E4D003D002D001E2
:10084200D000EF2BFBEE3AFAED39F9EC38F89030A4
:10085200AFE0FFE4FCFDFEEB2FF543EE3AF542ED8F
:1008620039F541EC38F540E47F64AB43AA42A94133
:10087200A840C31208015005754901801BE4F549DF
:10088200E543249CF543E54234FFF542E54134FF5C
:10089200F541E54034FFF540C207752201E5497094
:1008A20008120DBD1215FA80061215FA120DBD12AC
:1008B20014F1300703020948E4F518F519C3E519E4
:1008C2009529E5189528500D1216930519E519700A
:1008D200EC051880E89030CCE0700843B1087D2820
:1008E200FC800743B1087DC87C007F1C7E03121385
:1008F200C853B1F7D3E5269400E52594004007AF2D
:1009020026AE25121549E4FDFCC3ED954FEC954E3C
:10091200500D1215721216930DBD00010C80EAE4FF
:10092200F518F519C3E519954CE518954B501012B9
:1009320016961216960519E51970E9051880E5AFA5
:0609420045AE4412151D34
:01094800228C
:030000000210A447
:0C10A400787FE4F6D8FD7581700210EB37
:1006D200EF8DF0A4A8F0CF8CF0A428CE8DF0A42E3C
:0206E200FE22F6
:1006E400E88FF0A4CC8BF0A42CFCE98EF0A42CFCB5
:1006F4008AF0EDA42CFCEA8EF0A4CDA8F08BF0A433
:100704002DCC3825F0FDE98FF0A42CCD35F0FCEB91
:100714008EF0A4FEA9F0EB8FF0A4CFC5F02ECD3956
:0F072400FEE43CFCEAA42DCE35F0FDE43CFC22C3
:1007330075F008758200EF2FFFEE33FECD33CDCC7D
:1007430033CCC58233C5829BED9AEC99E582984000
:100753000CF582EE9BFEED9AFDEC99FC0FD5F0D6DD
:10076300E4CEFBE4CDFAE4CCF9A88222B800C1B907
:100773000059BA002DEC8BF084CFCECDFCE5F0CB45
:10078300F97818EF2FFFEE33FEED33FDEC33FCEB7E
:1007930033FB10D703994004EB99FB0FD8E5E4F939
:1007A300FA227818EF2FFFEE33FEED33FDEC33FC26
:1007B300C933C910D7059BE99A4007EC9BFCE99A1A
:1007C300F90FD8E0E4C9FAE4CCFB2275F010EF2F5F
:1007D300FFEE33FEED33FDCC33CCC833C810D7075F
:1007E3009BEC9AE899400AED9BFDEC9AFCE899F89A
:0E07F3000FD5F0DAE4CDFBE4CCFAE4C8F9222D
:10080100EB9FF5F0EA9E42F0E99D42F0E89C45F04D
:0108110022C4
:1010B000020522E493A3F8E493A34003F68001F22F
:1010C00008DFF48029E493A3F85407240CC8C33341
:1010D000C4540F4420C8834004F456800146F6DF10
:1010E000E4800B0102040810204080900A7DE47E19
:1010F000019360BCA3FF543F30E509541FFEE49305
:10110000A360010ECF54C025E060A840B8E493A3CB
:10111000FAE493A3F8E493A3C8C582C8CAC583CAF6
:10112000F0A3C8C582C8CAC583CADFE9DEE780BEAE
:010B6600008E
:00000001FF
