:0A09F10000010202030304040505DF
:10052800E4F515F514F513F512C209C206C208C29E
:1005380007120AB87E0C7F008E248F25752C0C7547
:100548002D1275220C75231C752A0C752B3C752EE3
:100558000C752F5CEE54E0700302066C751600757E
:1005680017808E188F19C374869FFF740C9ECF2432
:1005780002CF3400FEE48F118E10F50FF50EF50D45
:10058800F50CF50BF50AAF11AE10AD0FAC0EAB0DB7
:10059800AA0CA90BA80AC31209BA5026E517250DFB
:1005A800F582E516350CF58374CDF0E50D2401F5DB
:1005B8000DE4350CF50CE4350BF50BE4350AF50ABA
:1005C80080C4E4F50DF50CF50BF50AAF11AE10ADCE
:1005D8000FAC0EAB0DAA0CA90BA80AC31209BA508E
:1005E80031AE0CAF0DE5192FF582E5183EF583E025
:1005F800FDE5172FF582E5163EF583EDF0EF2401B2
:10060800F50DE43EF50CE4350BF50BE4350AF50A77
:1006180080B985162485172574002480FF740C344E
:10062800FFFEC3E52D9FF52DE52C9EF52CC3E52790
:100638009FF527E5269EF526C3E5299FF529E52898
:100648009EF528C3E5239FF523E5229EF522C3E501
:100658002B9FF52BE52A9EF52AC3E52F9FF52FE55D
:100668002E9EF52ED2E843D82090E668E04409F0A3
:1006780090E65CE0443DF0D2AF90E680E020E105F2
:10068800D20A12101790E680E054F7F0538EF8C2A1
:1006980009300705120304C2073009291211F15065
:1006A80024C20912114520061690E682E030E704BC
:1006B800E020E1EF90E682E030E604E020E0E4129A
:0A06C80010461211F31211EE80C764
:1003040090E6B9E070030203B514700302043224CA
:10031400FE70030204B524FB70030203AF147003E0
:100324000203A914607314607624056003020514A3
:100334001211F5400302052090E6BBE024FE602282
:1003440014603324FD601114602224067048E524EF
:1003540090E6B3F0E5258037E52C90E6B3F0E52D83
:10036400802DE52690E6B3F0E5278023E52890E686
:10037400B3F0E529801990E6BAE0FF121072AA06DC
:10038400A9077B01EA494B600DEE90E6B3F0EF90CC
:10039400E6B4F00205200205191211D80205201254
:1003A4000BEF020520120E5D0205201211C6020594
:1003B400201211F7400302052090E6B8E0247F6084
:1003C4001514601924027063A206E43325E0FFA229
:1003D40008E4334F8041E490E740F0803F90E6BC6E
:1003E400E0547EFF7E00E0D394807C0040047D01D5
:1003F40080027D00EC4EFEED4F24F1F58274093E3F
:10040400F583E493FF3395E0FEEF24A1FFEE34E699
:100414008F82F583E0540190E740F0E4A3F090E686
:100424008AF090E68B7402F002052002051912117D
:10043400F9400302052090E6B8E024FE6016240289
:10044400600302052090E6BAE0B40105C206020585
:100454002002051990E6BAE0705590E6BCE0547E9F
:10046400FF7E00E0D394807C0040047D0180027D07
:1004740000EC4EFEED4F24F1F58274093EF583E461
:1004840093FF3395E0FEEF24A1FFEE34E68F82F56F
:1004940083E054FEF090E6BCE05480131313541F21
:1004A400FFE0540F2F90E683F0E04420F0806D804D
:1004B400641211FB506690E6B8E024FE6019240231
:1004C400705A90E6BAE0B40104D206804F90E6BABE
:1004D400E064026047803E90E6BCE0547EFF7E000C
:1004E400E0D394807C0040047D0180027D00EC4ECA
:1004F400FEED4F24F1F58274093EF583E493FF3356
:1005040095E0FEEF24A1FFEE34E68F82F5838008A8
:10051400120080500790E6A0E04401F090E6A0E0CD
:030524004480F020
:0105270022B1
:030033000211EACD
:0411EA0053D8EF32B5
:100C00001201000200000040181631090000010224
:100C100000010A0600020000004001000902200055
:100C2000010100A0FA0904000002FF00000007050E
:100C300001024000000705820200020009022000B4
:100C400001010080FA0904000002FF00000007050E
:100C5000010240000007058202400000040309046D
:100C60001003510048005900430043004400200095
:100C7000160351004800590035005600200020009E
:080C800020002000200000000C
:1007DA006080180001010101010101070200020005
:1007EA0002000200010001000100010000000000F7
:1007FA000000003F0202020202020207000000009B
:10080A0000000000012001000100010000000000BA
:10081A000000003F0101010101010107020002007D
:10082A0002000200040400000000000000000000B2
:10083A000000003F0A0A0A0A0A0A0A070000000220
:10084A00000002000322020200040000000000006F
:10085A000000003F6024188700000000000000002C
:10086A00000000000000000000000000000000007E
:10087A00000000000000000000000000471880A0EF
:06088A00100000CA4E0040
:10089D0090E60174CAF090E6F574FFF0901880E0D0
:1008AD0090E6F3F0901881E090E6C3F0901882E0A6
:1008BD0090E6C1F0901883E090E6C2F0901885E0C4
:1008CD0090E6C0F0901886E090E6F4F075AF0774EE
:1008DD0018F59A7400F59B759DE4E4F59EFF90E67E
:1008ED007BE090E67CF00FBF80F490E67174FFF032
:1008FD00F5B490E672E04480F043B680000000E469
:10090D0090E6C4F000000090E6C5F0901887E090E6
:10091D00E6C6F0901888E090E6C7F0901889E09050
:10092D00E6C8F090188AE090E6C9F090188BE09038
:10093D00E6CAF090188CE090E6CBF090188DE09020
:0B094D00E6CCF090188EE090E6CDF0B4
:01095800227C
:03004300020A00AE
:03005300020A009E
:100A000002116A000211B00002119A000211820064
:100A1000020F0F00020E9A00020BFF000211FD00F0
:100A20000211FE000211FF0002120000020D7D0003
:100A3000021201000212020002120300021204005C
:100A4000021205000211FD00021206000212070048
:100A5000021208000212090002120A0002120B0020
:100A600002120C000211FD000211FD000211FD0036
:100A700002120D0002120E0002120F0002121000EC
:100A800002121100021212000212130002121400CC
:100A900002121500021216000212170002121800AC
:100AA0000212190002121A0002121B0002121C008C
:080AB00002121D0002121E00DB
:1010460090E682E030E004E020E60B90E682E030B5
:10105600E119E030E71590E680E04401F07F147E68
:0C10660000120DD690E680E054FEF0224F
:1011450090E682E044C0F090E681F043870100001C
:041155000000002274
:10101700300A0990E680E0440AF0800790E680E015
:101027004408F07FDC7E05120DD690E65D74FFF074
:0F10370090E65FF05391EF90E680E054F7F022DF
:02107200A907CC
:10107400AE2EAF2F8F828E83A3E064037017AD0171
:1010840019ED7001228F828E83E07C002FFDEC3EEF
:09109400FEAF0580DF7E007F0045
:01109D002230
:100DD6008E1E8F1F90E600E054187012E51F240146
:100DE600FFE4351EC313F51EEF13F51F801590E6BD
:100DF60000E05418FFBF100BE51F25E0F51FE51EA8
:100E060033F51EE51F151FAE1E7002151E4E60053A
:060E160012115980EE22CA
:101159007400F58690FDA57C05A3E582458370F9A9
:011169002263
:0C089000C102C18402310000C103C1009C
:100AB80090E600E054E74410F000000000000090C9
:100AC800E61074A0F000000090E60B7401F090E6C8
:100AD8001274E0F0000000E490E613F000000090CB
:100AE800E614F000000090E615F000000090E6180B
:100AF800740CF000000090E6D27402F090E60474E2
:100B080080F00000007402F0000000E4F000000033
:100B180012089DE490E671F075B4FF90E670F075E8
:100B2800B2FFF5B5753102F53290E65EE04408F0A3
:100B3800000000E490E68DF01210C9D281C2807FD7
:100B48000A7E00120DD6D28175B2F7120BF790E625
:0B0B580000E04402F0C205E4F5B52205
:0311EE00020C8868
:0211F100D32207
:0211F300D32205
:0211F500D32203
:100E5D0090E680E030E71800000090E6207402F084
:100E6D00000000E490E621F0000000D2048016009E
:100E7D000000E490E620F000000090E6217440F0C0
:0D0E8D00000000C20490E6BAE0F538D32260
:1011C60090E740E538F0E490E68AF090E68B04F08C
:0211D600D32222
:080BEF0090E6BAE0F533D322D1
:1011D80090E740E533F0E490E68AF090E68B04F07F
:0211E800D32210
:0211F700D32201
:0211F900D322FF
:0211FB00D322FD
:10008000E4F51AF51B90E6B9E01209CB00AEB20018
:10009000CEB3012CB4012CB501C2B601FAB7020FE0
:1000A000B8025CB90293C102B5C20000030090E639
:1000B0000B7401F000000090E6047480F000000072
:1000C0007402F000000090E74074B2020201E49074
:1000D000E68AF090E68BF090E6A0E020E1F990E669
:1000E0008BE0F51AD394094024E4F51B7440251BDA
:1000F000F582E434E7F583E0FF74BE251BF582E466
:100100003418F583EFF0051BE51BB40ADFE4F5B501
:10011000F5B3D202D20100000090E6047480F00032
:1001200000007402F0000000E40201F6E490E68AA8
:10013000F090E68BF090E6A0E020E1F990E68BE00D
:10014000F51AD39401401090E740E09018C6F09063
:10015000E741E09018C7F09018C6E0FF5480C41340
:100160001313540124FF9287EF5440C41313540314
:1001700024FF9286E0FF5420C413540724FF928585
:10018000EF5410C4540F24FF9284A3E075F00AA426
:10019000FFAEF0120DD69018C6E0FF5408131313EB
:1001A000541F24FF9287EF54041313543F24FF92EB
:1001B00086E0FF5402C31324FF9285EF139284025A
:1001C00002F7E4F51B74AB251BF582E43418F583C4
:1001D000E0FF7440251BF582E434E7F583EFF0057A
:1001E0001BE51BB413DF000000E490E68AF000007A
:1001F0000090E68B7413F00202F7C20290E740749D
:10020000B7F0E490E68AF090E68B04F00202F7E49F
:1002100090E68AF090E68BF090E6A0E020E1F9907D
:10022000E68BE0F51AD394124024E4F51B744025C4
:100230001BF582E434E7F583E0FF74AB251BF58200
:10024000E43418F583EFF0051BE51BB413DF90E6EB
:10025000A0E04480F0C281D205020302E4F51B74E1
:10026000AB251BF582E43418F583E0FF7440251BB1
:10027000F582E434E7F583EFF0051BE51BB413DFEB
:10028000000000E490E68AF000000090E68B741312
:10029000F08064E490E68AF090E68BF090E6A0E0CF
:1002A00020E1F990E68BE0F51A90E6A0E04480F0BA
:1002B0001210C9804D90E74074A6F0A37409F0A312
:1002C0007405F0A374F4F0A37404F0A3741AF0E4BA
:1002D000A3F0A3F0A37413F0300405E4A3F08006A8
:1002E00090E74974FFF0000000E490E68AF0000017
:1002F0000090E68B740AF090E6A0E04480F0800263
:03030000D322C342
:0103030022D7
:10116A00C0E0C083C082D2075391EF90E65D74015C
:08117A00F0D082D083D0E032F6
:10119A00C0E0C083C0825391EF90E65D7404F0D042
:0611AA0082D083D0E03288
:1011B000C0E0C083C0825391EF90E65D7402F0D02E
:0611C00082D083D0E03272
:100F0F00C0E0C083C082852A26852B27852782854E
:100F1F002683A37402F085222885232985298285BB
:100F2F002883A37407F05391EF90E65D7410F0D00F
:060F3F0082D083D0E032F5
:10118200C0E0C083C082D2095391EF90E65D74083B
:08119200F0D082D083D0E032DE
:100E9A00C0E0C083C08290E680E030E72085222649
:100EAA00852327852782852683A37402F0852A282D
:100EBA00852B29852982852883A37407F05391EF0E
:0D0ECA0090E65D7420F0D082D083D0E0323D
:010BFF0032C3
:0111FD0032BF
:0111FE0032BE
:0111FF0032BD
:0112000032BB
:100D7D00C0E0C0F0C083C082C0D075D000C000C03C
:100D8D0001C002C003C004C005C006C007C2AFC287
:100D9D00807F0A7E00120DD6D28000000090E68D75
:100DAD00E4F05391EF90E65FE04408F0D2AFD00746
:100DBD00D006D005D004D003D002D001D000D0D0C1
:090DCD00D082D083D0F0D0E032D6
:0112010032BA
:0112020032B9
:0112030032B8
:0112040032B7
:0112050032B6
:0112060032B5
:0112070032B4
:0112080032B3
:0112090032B2
:01120A0032B1
:01120B0032B0
:01120C0032AF
:01120D0032AE
:01120E0032AD
:01120F0032AC
:0112100032AB
:0112110032AA
:0112120032A9
:0112130032A8
:0112140032A7
:0112150032A6
:0112160032A5
:0112170032A4
:0112180032A3
:0112190032A2
:01121A0032A1
:01121B0032A0
:01121C00329F
:01121D00329E
:01121E00329D
:10111F0012109E9018ACE01210AE9018ADE01210A5
:10112F00AE9018AEE01210AE90E678E04440F07F3B
:06113F00327E000210B632
:100F450012109EE490E679F07F32FE1210B690E61C
:100F550078E04440F074911210AE90E679E0901874
:100F6500AD1210B190E679E09018AE1210B190E68E
:060F750078E04440F02288
:100E1C0012109E90E67974011210B1751A00751BB0
:100E2C000174AB251BF582E43418F583E01210AE87
:100E3C00051BE51B7002051AC3940DE51A6480941A
:100E4C008040DE90E678E04440F07F647E00021043
:010E5C00B6DF
:100ED70012109E90E67974801210B1E4F51AF51B92
:100EE7009018ACE01210AE051BE51B7002051AC383
:100EF7009432E51A6480948040E690E678E04440B6
:080F0700F07F327E000210B6FB
:10109E0090E67AE04401F090E678E04480F07490B7
:0810AE0090E679F07F327E002C
:1010B600EF25E0FFEE33FEEF4E6007EF1F70F81EE0
:0310C60080F52290
:1010C900E4F51CF51DD2817F0A7E00120DD6C2817E
:1010D9007F0A7E00120DD6051DE51D7002051CC391
:0A10E9009405E51C6480948040DB50
:0110F30022DA
:01121F0022AC
:0112200022AB
:100D10007530019018C3E075F040A485F01AF51BFA
:100D2000AF307E00AC1AAD1B1209A8D3EF9400EED1
:100D3000940040117F007E04120DD6E51B151B7038
:100D4000DF151A80DB9018C4E0751A00F51BAF3070
:100D50007E00AC1AAD1B1209A8D3EF9400EE9400EC
:100D600040117F007E01120DD6E51B151B70DF15AB
:0D0D70001A80DB9018C5E0FF7E00020DD652
:0509FB008E1A8F1B2283
:1010F40090E6C0744EF00000009018C1E090E6D075
:10110400F00000009018C2E090E6D1F000000075F5
:0B111400BB04000000E5BB30E7FB223D
:100C8800200203020D0FE5BB30E77C30017990E6C6
:100C9800C0749CF0E4FFFE1209FB120D1000000066
:100CA8009018BEE090E6CFF00000009018BFE090EA
:100CB800E6D0F00000009018C0E090E6D1F0000007
:100CC8000075BB040000009018BEE014FF90E6CF4A
:100CD800E0D39F50F230051F9018ABE0700312115B
:100CE8001F9018ABE0B40103120E1C9018ABE0B4CF
:100CF8000203120ED7C205E5BB20E704D28180F7B4
:080D0800C281C2011210F422A5
:080BF700E4F542D2E9D2AF227D
:100F7B0090E678E020E6F9C2E990E678E04480F06C
:100F8B00EF25E090E679F090E678E030E0F990E636
:100F9B0078E04440F090E678E020E6F990E678E0DF
:060FAB0030E1D6D2E9227C
:100FE500A90790E678E020E6F9E542702390E678D7
:100FF500E04480F0E925E090E679F08D3DAF03A966
:1010050007753E018A3F8940E4F541754201D322C7
:02101500C322F4
:100FB100A90790E678E020E6F9E542702590E67809
:100FC100E04480F0E925E0440190E679F08D3DAF01
:100FD10003A907753E018A3F8940E4F54175420343
:040FE100D322C32232
:03004B000206D2D8
:1006D200C0E0C083C082C085C084C086758600C069
:1006E200D075D000C000C001C002C003C006C00760
:1006F20090E678E030E2067542060207BC90E678A2
:10070200E020E10CE542640260067542070207BC84
:10071200E54224FE605F14603624FE70030207ADDA
:1007220024FC70030207B9240860030207BCAB3E35
:10073200AA3FA940AF4105418F8275830012095932
:1007420090E679F0E541653D7070754205806B90E9
:10075200E679E0AB3EAA3FA940AE418E82758300A6
:10076200120986754202E53D6401704E90E678E01A
:100772004420F08045E53D24FEB5410790E678E04F
:100782004420F0E53D14B5410A90E678E04440F09B
:1007920075420090E679E0AB3EAA3FA940AE418E99
:1007A200827583001209860541800F90E678E04445
:1007B20040F075420080037542005391DFD007D0AC
:1007C20006D003D002D001D000D0D0D086D084D0C1
:0807D20085D082D083D0E03213
:03000000020B638D
:0C0B6300787FE4F6D8FD758142020BAAF1
:10095900BB010CE58229F582E5833AF583E0225053
:1009690006E92582F8E622BBFE06E92582F8E2229D
:0D097900E58229F582E5833AF583E49322B7
:10098600F8BB010DE58229F582E5833AF583E8F0A7
:10099600225006E92582C8F622BBFE05E92582C853
:0209A600F2223B
:1009A800EF8DF0A4A8F0CF8CF0A428CE8DF0A42E63
:0209B800FE221D
:1009BA00EB9FF5F0EA9E42F0E99D42F0E89C45F093
:0109CA00220A
:1009CB00D083D082F8E4937012740193700DA3A3BB
:1009DB0093F8740193F5828883E4737402936860CF
:0609EB00EFA3A3A380DFCF
:100B6F00020528E493A3F8E493A34003F68001F26F
:100B7F0008DFF48029E493A3F85407240CC8C33387
:100B8F00C4540F4420C8834004F456800146F6DF56
:100B9F00E4800B01020408102040809007DAE47E05
:100BAF00019360BCA3FF543F30E509541FFEE4934B
:100BBF00A360010ECF54C025E060A840B8E493A312
:100BCF00FAE493A3F8E493A3C8C582C8CAC583CA3D
:100BDF00F0A3C8C582C8CAC583CADFE9DEE780BEF5
:01089C00005B
:00000001FF
