:0A14200000010202030304040505A5
:100DB800E4F545F544F543F542C212C20FC211C22B
:100DC800101208C4750A0F750B0075120F751312EF
:100DD80075080F75091C75100F75113C75140F7582
:100DE800155C85080C85090DD2E843D82090E66883
:100DF800E04409F090E65CE0443DF0D2AF90E68034
:100E0800E020E105D213120CD090E680E054F7F010
:100E1800538EF8C2123010051204E3C210301229A2
:100E28001214AE5024C2121212BF200F1690E6827E
:100E3800E030E704E020E1EF90E682E030E604E00D
:0E0E480020E0E41211EC1214B01214A580C7C1
:1004E30090E6B9E070030205941470030206112428
:1004F300FE700302069424FB700302058E1470033E
:10050300020588146073146076240560030206F301
:100513001214B240030206FF90E6BBE024FE602201
:1005230014603324FD601114602224067048E50A28
:1005330090E6B3F0E50B8037E51290E6B3F0E513F0
:10054300802DE50C90E6B3F0E50D8023E50E90E6F3
:10055300B3F0E50F801990E6BAE0FF121218AA066D
:10056300A9077B01EA494B600DEE90E6B3F0EF90EB
:10057300E6B4F00206FF0206F81213ED0206FF12BC
:1005830014690206FF1211090206FF1213DB0206A9
:10059300FF1214B440030206FF90E6B8E0247F6024
:1005A3001514601924027063A20FE43325E0FFA23F
:1005B30011E4334F8041E490E740F0803F90E6BC84
:1005C300E0547EFF7E00E0D394807C0040047D01F4
:1005D30080027D00EC4EFEED4F2420F58274143E24
:1005E300F583E493FF3395E0FEEF24A1FFEE34E6B9
:1005F3008F82F583E0540190E740F0E4A3F090E6A6
:100603008AF090E68B7402F00206FF0206F81214D9
:10061300B640030206FF90E6B8E024FE601624020B
:1006230060030206FF90E6BAE0B40105C20F0206BA
:10063300FF0206F890E6BAE0705590E6BCE0547EFF
:10064300FF7E00E0D394807C0040047D0180027D26
:1006530000EC4EFEED4F2420F58274143EF583E446
:1006630093FF3395E0FEEF24A1FFEE34E68F82F58E
:1006730083E054FEF090E6BCE05480131313541F40
:10068300FFE0540F2F90E683F0E04420F0806D806C
:10069300641214B8506690E6B8E024FE6019240290
:1006A300705A90E6BAE0B40104D20F804F90E6BAD4
:1006B300E064026047803E90E6BCE0547EFF7E002B
:1006C300E0D394807C0040047D0180027D00EC4EE9
:1006D300FEED4F2420F58274143EF583E493FF333B
:1006E30095E0FEEF24A1FFEE34E68F82F5838008C8
:1006F300120080500790E6A0E04401F090E6A0E0ED
:030703004480F03F
:0107060022D0
:030033000214991B
:0414990053D8EF3203
:100F00001201000200000040C0161D08000001028E
:100F100000010A0600020000004001000902200052
:100F200001010080320904000002FF0000000705F3
:100F300001024000000705820200020009022000B1
:100F400001010080320904000002FF0000000705D3
:100F5000010240000007058202400000040309046A
:100F60000E0351004800590043004300440016039B
:100F7000510048005900360020002D002000430099
:060F8000430044000000E4
:1009AE00608018000102010101020107000000022F
:1009BE00000002001332120A080C080000000000AA
:1009CE000000003F010201010102010700000002C8
:1009DE000000020013320A12100C08000000000082
:1009EE000000003F0A0A0A0A0A0A0A07000000026B
:1009FE00000002001332120A080C0800000000006A
:100A0E000000003F0A0A0A0A0A0A0A07000000024A
:100A1E000000020013320A12100C08000000000041
:100A2E000000003F60241887000000000000000056
:100A3E0000000000000000000000000000000000A8
:100A4E000000000000000000000000004718808039
:060A5E00000000CA4E007A
:100C140090E60174CAF090E6F574FFF0901880E055
:100C240090E6F3F0901881E090E6C3F0901882E02B
:100C340090E6C1F0901883E090E6C2F0901885E049
:100C440090E6C0F0901886E090E6F4F075AF077473
:100C540018F59A7400F59B759DE4E4F59EFF90E603
:100C64007BE090E67CF00FBF80F490E67174FFF0B7
:100C7400F5B490E672E04480F043B680000000E4EE
:100C840090E6C4F000000090E6C5F0901887E0906C
:100C9400E6C6F0901888E090E6C7F0901889E090D6
:100CA400E6C8F090188AE090E6C9F090188BE090BE
:100CB400E6CAF090188CE090E6CBF090188DE090A6
:0B0CC400E6CCF090188EE090E6CDF03A
:010CCF002202
:03004300020D00AB
:03005300020D009B
:100D0000021301000213750002135F0002131900A1
:100D10000211830002114600020CFF00020EFF00C8
:100D20000214BA000214BB000214BC0002129900A3
:100D30000214BD000214BE000214BF000214C00061
:100D40000214C100020EFF000214C2000214C3000C
:100D50000214C4000214C5000214C6000214C70025
:100D60000214C800020EFF00020EFF00020EFF0078
:100D70000214C9000214CA000214CB000214CC00F1
:100D80000214CD000214CE000214CF000214D000D1
:100D90000214D1000214D2000214D3000214D400B1
:100DA0000214D5000214D6000214D7000214D80091
:080DB0000214D9000214DA005C
:1011EC0090E682E030E004E020E60B90E682E0300E
:1011FC00E119E030E71590E680E04401F07F147EC1
:0C120C00001210C390E680E054FEF022B7
:1012BF0090E682E044C0F090E681F04387010000A1
:0412CF0000000022F9
:100CD00030130990E680E0440AF0800790E680E057
:100CE0004408F07FDC7E051210C390E65D74FFF0CF
:0F0CF00090E65FF05391EF90E680E054F7F0222A
:02121800A90724
:10121A00AE14AF158F828E83A3E064037017AD01FD
:10122A0019ED7001228F828E83E07C002FFDEC3E47
:09123A00FEAF0580DF7E007F009D
:011243002288
:1010C3008E4C8F4D90E600E054187012E54D2401CC
:1010D300FFE4354CC313F54CEF13F54D801590E643
:1010E30000E05418FFBF100BE54D25E0F54DE54C2E
:1010F30033F54CE54D154DAE4C7002154C4E600565
:061103001212D380EE225F
:1012D3007400F58690FDA57C05A3E582458370F92E
:0112E30022E8
:100A6400C105C18702240000023A000002380000D8
:100A7400022B0636022E0000C106C103023E0257B5
:040A8400023C000030
:1008C40090E600E054E74410F000000000000090BF
:1008D400E61074A0F000000090E60B7401F090E6BE
:1008E4001274E0F0000000E490E613F000000090C1
:1008F400E614F000000090E615F000000090E61801
:10090400740CF000000090E6D27402F090E60474D7
:1009140080F00000007402F0000000E4F000000029
:10092400120C14E490E671F075B4FF90E672F07561
:10093400B6FF75B1FF90E670F075B2FFD286F5B5DB
:100944001213C8752402752500C3E4952CFF741096
:10095400952BAD0790E630F0AF05EF90E631F0E46B
:10096400F53AF53BF538F53990E65EE04408F000D9
:100974000000E490E68DF07FAAFE12142A121244BD
:10098400D283C2807FAA7E0012142A1214A875276B
:10099400007528B4753401753590752B06752C36A1
:0909A400753602753754E4F52D97
:0109AD002227
:0314A500020F86AD
:0214AE00D32247
:0214B000D32245
:0214B200D32243
:1011090090E680E030E71800000090E6207402F0D5
:10111900000000E490E621F0000000D207801600EC
:101129000000E490E620F000000090E6217440F011
:0D113900000000C20790E6BAE0F533D322B3
:1013DB0090E740E533F0E490E68AF090E68B04F07A
:0213EB00D3220B
:0814690090E6BAE0F526D3225B
:1013ED0090E740E526F0E490E68AF090E68B04F075
:0213FD00D322F9
:0214B400D32241
:0214B600D3223F
:0214B800D3223D
:10008000E4F546F54790E6B9E0120B9900B4B200EA
:10009000FCB30145B40197B50317B6034EB703632C
:1000A000B803F9B90415BA0431C10472C204BAD153
:1000B000000004DF90E60B7401F000000090E604FD
:1000C0007480F00000007402F000000090E60174FB
:1000D000C8F000000090E6C3743FF000000090E616
:1000E000C274FFF0000000F5B5E4F5B0F5B37F820F
:1000F000FE12142A90E74074B2020355E490E68A97
:10010000F090E68BF090E6A0E020E1F990E68BE03D
:10011000F546E4F53AF53BF5B5F5B390E60174CA5A
:10012000F0E490E6C3F090E6C2F0D205D2040000FD
:100130000090E6047480F00000007402F0000000FB
:10014000E4F00204E1E4F53EF53FF53CF53D90E6D0
:100150000B04F000000090E6047480F000000074CE
:1001600002F000000090E60174C8F000000090E684
:10017000C3743FF000000090E6C274FFF00000007E
:10018000F5B5E4F5B0F5B37FAAFE12142AD20590B6
:10019000E74074B4020355E490E68AF090E68BF0F1
:1001A00090E6A0E020E1F990E68BE0F546D39417C5
:1001B0004024E4F54774402547F582E434E7F583AD
:1001C000E0FF74AB2547F582E43418F583EFF005C2
:1001D00047E547B418DF9018ABE0FF7E00121433F8
:1001E0009018ABE0FF7E0012143C9018ABE0FF7E4D
:1001F000001214459018B2E075F004A4FFAEF0129E
:10020000144E9018B2E075F004A4FFAEF01214572B
:100210009018B2E075F004A4FFAEF01214609018CC
:10022000B0E0FF5440C41313540324FF920BEF5467
:1002300002C31324FF920CE01392099018AFE0FF61
:100240005480C4131313540124FF920AEF5440C482
:100250001313540324FF920EE0FF54081313135496
:100260001F24FF9200EF54041313543F24FF920104
:10027000E05402C31324FF920D20001090E6C0202A
:100280000A05744EF08013749CF0800E90E6C02036
:100290000A05749FF08003749DF09018B1E0FFF59B
:1002A000307004C208C202EFB40104C208D202EFE7
:1002B000B40204D208C2027F9A7E0012142A901857
:1002C000B5E0FEA3E07C002400F528EC3EF527A372
:1002D000E0FEA3E02400F535EC3EF534A3E0FEA3F8
:1002E000E02400F52CEC3EF52BA3E0FEA3E0240077
:1002F000F537EC3EF536A3E0FEA3E02400F532EC42
:100300003EF531A3E0F52DA3E0FEA3E02400F52A9D
:10031000EC3EF5290204E1E4F54774AB2547F5828C
:10032000E43418F583E0FF74402547F582E434E7B0
:10033000F583EFF00547E547B418DF000000E490CF
:10034000E68AF000000090E68B74180204B4C2053F
:1003500090E74074B7F0E490E68AF090E68B04F002
:100360000204E1E490E68AF090E68BF090E6A0E0EB
:1003700020E1F990E68BE0F546D39401401090E738
:1003800040E09018C6F090E741E09018C7F0901850
:10039000C6E0FF5480C4131313540124FF92A0EF4E
:1003A0005440C41313540324FF92A1E0FF5420C40B
:1003B00013540724FF92A2EF5410C4540F24FF9249
:1003C000A3A3E075F00AA4FFAEF01210C39018C604
:1003D000E0FF5408131313541F24FF92A0EF54049A
:1003E0001313543F24FF92A1E0FF5402C31324FFD0
:1003F00092A2EF1392A30204E1E490E68AF090E661
:100400008BF090E6A0E020E1F990E68BE0F5461253
:1004100014A80204E1E490E68AF090E68BF090E6FE
:10042000A0E020E1F990E68BE0F5461214AB02045F
:10043000E1E490E68AF090E68BF090E6A0E020E11F
:10044000F990E68BE0F546D394024069E4F54774F1
:10045000402547F582E434E7F583E0FF74C3254780
:10046000F582E43418F583EFF00547E547B403DF80
:10047000804390E7407473F0A37416F0A37403F004
:10048000A3741BF0A37402F0A37454F0E4A3F0A3CC
:1004900004F0A37459F0300705E4A3F0800690E758
:1004A0004974FFF0000000E490E68AF0000000903C
:1004B000E68B740AF0121244802790E74074CFF064
:1004C000000000E490E68AF000000090E68B04F063
:1004D0001212E4300B02C286121244C2838002D38D
:0204E00022C335
:0104E20022F7
:10130100C0E0C083C082D2105391EF90E65D7401BA
:08131100F0D082D083D0E0325D
:10135F00C0E0C083C0825391EF90E65D7404F0D07B
:06136F0082D083D0E032C1
:10137500C0E0C083C0825391EF90E65D7402F0D067
:0613850082D083D0E032AB
:10118300C0E0C083C08285100C85110D850D82855A
:101193000C83A37402F085080E85090F850F8285E1
:1011A3000E83A37407F05391EF90E65D7410F0D0B3
:0611B30082D083D0E0327F
:10131900C0E0C083C082D2125391EF90E65D740899
:08132900F0D082D083D0E03245
:10114600C0E0C083C08290E680E030E72085080CCE
:1011560085090D850D82850C83A37402F085100E1A
:1011660085110F850F82850E83A37407F05391EFC7
:0D11760090E65D7420F0D082D083D0E0328E
:010CFF0032C2
:010EFF0032C0
:0114BA0032FF
:0114BB0032FE
:0114BC0032FD
:10129900C0E0C083C082C2AF75230000000090E6A1
:1012A9008DE4F05391EF90E65FE04408F0D2AFD0BF
:0612B90082D083D0E03278
:0114BD0032FC
:0114BE0032FB
:0114BF0032FA
:0114C00032F9
:0114C10032F8
:0114C20032F7
:0114C30032F6
:0114C40032F5
:0114C50032F4
:0114C60032F3
:0114C70032F2
:0114C80032F1
:0114C90032F0
:0114CA0032EF
:0114CB0032EE
:0114CC0032ED
:0114CD0032EC
:0114CE0032EB
:0114CF0032EA
:0114D00032E9
:0114D10032E8
:0114D20032E7
:0114D30032E6
:0114D40032E5
:0114D50032E4
:0114D60032E3
:0114D70032E2
:0114D80032E1
:0114D90032E0
:0114DA0032DF
:060A89008F488C498D4AE4
:100A8F0075B6FF75B5FF53B07F534807C2A67F0AEF
:100A9F007E001213C7E4F54BF54CC37402954CFF5F
:100AAF00E548A807088002C313D8FC30E004D2A59C
:100ABF008002C2A57F0A7E001213C7D2A47F0A7ECE
:100ACF00001213C7C2A47F0A7E001213C7054CE59C
:100ADF004C7002054BC39403E54B6480948040BA7D
:100AEF00E4F54BF54CC37409954CFFE54AAE49A8A4
:100AFF0007088005CEC313CE13D8F930E004D2A572
:100B0F008002C2A57F0A7E001213C7D2A47F0A7E7D
:100B1F00001213C7C2A47F0A7E001213C7054CE54B
:100B2F004C7002054BC3940AE54B6480948040B52A
:100B3F00D2A67F0A7E001213C7C2A67F0A7E0002CA
:020B4F0013C7CA
:09142A00AD07AC06E4FF020A89DB
:09143300AD07AC067F04020A8932
:09143C00AD07AC067F05020A8928
:09144500AD07AC067F06020A891E
:09144E00AD07AC067F01020A891A
:09145700AD07AC067F02020A8910
:09146000AD07AC067F03020A8906
:1013B5007F221213C712149D7F021213C712147FC6
:0213C5007F1097
:0113C7002203
:0714710053B1EF53B1FB2260
:081411001214717F191213C7B8
:0714190053B1EF43B10422BF
:0D13A1001213C812147F7F027E001213C7C2
:0713AE0043B11043B104221A
:0714780053B17F53B1DF22E5
:07147F0053B17F43B12022AD
:0714860043B18043B12022B5
:10138B0012147F1213AE1214A112149D12141912FF
:02139B001486B6
:04139D0053B1FE2228
:04149D0043B1012234
:0414A10053B1FD2224
:10107A007F191213C71214191213C71214781213F4
:10108A00C712147F1213C712139D7F3C1213C71283
:10109A0013AE7F021213C71214A11213C712149DA2
:1010AA001213C71214191213C71214861213C71275
:0510BA00139D1213C795
:0410BF0043B1022215
:1013C80012141912139D1214861210BF43B1084348
:0313D800B14022FF
:1011B9001213A112109E1213B51214111213C71291
:1011C90014781213C712147F1213C71214A17F3C8B
:1011D9001213C71214867F021210B61213C77F6446
:0311E9000213C727
:101331001213A112109E1213B512147112107A1207
:0713410013C77F640213C70C
:100EE2001213A112109E1213B51214111213C7126B
:0D0EF200147F1210881213C77F640213C70B
:101348001213A112109E1213B512141912107A1248
:0713580013C77F640213C7F5
:06148D0012138B0210BFD8
:0614930012138B0210BFD2
:1013FF00E4FFFE12148D0FBF00010EBE03F5BF1BDD
:01140F00F2EA
:0114100022B9
:1012E400E4FFFED287D287D287D287D287D287C241
:0C12F400870FBF00010EBE01EABF04E737
:0113000022CA
:10124400E4F548F549D2837F0A7E001210C3C283B5
:101254007F0A7E001210C30549E54970020548C3A0
:0A1264009405E5486480948040DBA7
:01126E00225D
:10100200C2831214A8200D031212E4300B02C2860E
:101012007523019018ACE075F040A485F04AF54BB9
:10102200AF237E00AC4AAD4B120B51EF4E60117FE5
:10103200007E041210C3E54B154B70E4154A80E0A4
:101042009018ADE0754A00F54BAF237E00AC4AAD77
:101052004B120B51EF4E60117F007E011210C3E55F
:101062004B154B70E4154A80E09018AEE0FF7E000D
:071072001210C3D286D283E5
:011079002254
:040707008E468F4744
:10070B00E53060030207AAE5474546704A200C0511
:10071B001210028005300B02D286200D031213FF3C
:10072B002001051213488003120EE2300903121444
:10073B00ABE4F548F549E527C313FEE52813FFC3E2
:10074B00E5499FE5489E500D12148D0549E549700A
:10075B00E5054880E1D283E536C313FEE537136523
:10076B00477003EE65467037D283200D031213FFDB
:10077B00200105120EE28003121348E4F548F549F7
:10078B00E527C313FEE52813FFC3E5499FE5489E04
:10079B00500D12148D0549E54970E5054880E1E5DA
:1007AB00306401600302086DE54745467050121036
:1007BB0002200D031213FF20010D200E051213480A
:1007CB0080101211B9800B200E05120EE28003125D
:1007DB0013313009031214ABE4F548F549E527C38F
:1007EB0013FEE52813FFC3E5499FE5489E500D1204
:1007FB00148D0549E54970E5054880E1D283E5365E
:10080B00C313FEE5371365477003EE65467053124D
:10081B0014A8121002200D031213FF20010D200E3D
:10082B0005120EE28010121331800B200E051213ED
:10083B004880031211B93009031214ABE4F548F5E3
:10084B0049E527C313FEE52813FFC3E5499FE54898
:10085B009E500D12148D0549E54970E5054880E160
:10086B00D283E53064027050E5474546704A200C50
:10087B00051210028005300B02D286200D031213D5
:10088B00FF2001051211B980031213313009031235
:10089B0014ABE4F548F549E527C313FEE52813FF30
:1008AB00C3E5499FE5489E500D12148D0549E54956
:0808BB0070E5054880E1D283DD
:0108C3002212
:10126F00AB070000007F007C017D00120B6390E64E
:10127F00D0EFF0000000EB90E6D1F000000075BB5E
:0A128F0004000000E5BB30E7FB227D
:100F8600300578E5BB30E773300470AF3BAE3A12FC
:100F96000707000000E52B90E6D0F0000000E52CE6
:100FA60090E6D1F0000000C28375BB04000000E5A6
:100FB600BB30E7FBE52D700312148DE52DB4010659
:100FC60012148D12148D053BE53B7002053AC3954C
:100FD60037E53A9536401FC204AF32AE3112126F72
:100FE600E4FFFEC3EF9535EE9534500A12148D0FCB
:0B0FF600BF00010E80EDD2831214A892
:0110010022CC
:0314A800C2A722B6
:0314AB00D2A722A3
:03000000020E5697
:0C0E5600787FE4F6D8FD75814D020E9DFA
:100B5100EF8DF0A4A8F0CF8CF0A428CE8DF0A42EB8
:020B6100FE2272
:100B6300C2D5EC30E709B2D5E4C39DFDE49CFCEEAD
:100B730030E715B2D5E4C39FFFE49EFE120BBFC35B
:100B8300E49DFDE49CFC8003120BBF30D507C3E456
:060B93009FFFE49EFE221C
:100B9900D083D082F8E4937012740193700DA3A3EB
:100BA90093F8740193F5828883E4737402936860FF
:060BB900EFA3A3A380DFFF
:100E6200020DB8E493A3F8E493A34003F68001F2E1
:100E720008DFF48029E493A3F85407240CC8C33391
:100E8200C4540F4420C8834004F456800146F6DF60
:100E9200E4800B01020408102040809009AEE47E39
:100EA200019360BCA3FF543F30E509541FFEE49355
:100EB200A360010ECF54C025E060A840B8E493A31C
:100EC200FAE493A3F8E493A3C8C582C8CAC583CA47
:100ED200F0A3C8C582C8CAC583CADFE9DEE780BEFF
:010A8800006D
:100BBF00BC000BBE0029EF8DF084FFADF022E4CC1A
:100BCF00F875F008EF2FFFEE33FEEC33FCEE9DECE3
:100BDF00984005FCEE9DFE0FD5F0E9E4CEFD22ED29
:100BEF00F8F5F0EE8420D21CFEADF075F008EF2F73
:100BFF00FFED33FD4007985006D5F0F222C398FD64
:050C0F000FD5F0EA2200
:00000001FF