:0A0E4E00000102020303040405057D
:1005B200E4F531F530F52FF52EC203C200C202C2B6
:1005C2000112078A7E007F908E0A8F0B75120075CA
:1005D20013A27508007509AC7510007511D3751456
:1005E200007515FA90E680E030E70E85080C850963
:1005F2000D85100E85110F800C85100C85110D854F
:10060200080E85090FEE54E07003020723753200CD
:100612007533807E007F908E348F35C374209FFFA8
:1006220074019ECF2402CF3400FEE48F2D8E2CF570
:100632002BF52AF529F528F527F526AF2DAE2CAD99
:100642002BAC2AAB29AA28A927A826C3120AEF5045
:100652002AE5332529F582E5323528F58374CDF074
:10066200E4FAF9F8E5292401F529EA3528F528E91B
:100672003527F527E83526F52680C0E4F529F52843
:10068200F527F526AF2DAE2CAD2BAC2AAB29AA2827
:10069200A927A826C3120AEF5035AE28AF29E5359F
:1006A2002FF582E5343EF583E0FDE5332FF582E553
:1006B200323EF583EDF0E4FAF9F8EF2401F529EA88
:1006C2003EF528E93527F527E83526F52680B58554
:1006D200320A85330B74902480FF740034FFFEC30A
:1006E200E5139FF513E5129EF512C3E50D9FF50D77
:1006F200E50C9EF50CC3E50F9FF50FE50E9EF50E7A
:10070200C3E5099FF509E5089EF508C3E5119FF5C4
:1007120011E5109EF510C3E5159FF515E5149EF53C
:1007220014D2E843D82090E668E04409F090E65CF1
:10073200E0443DF0D2AF90E680E020E105D2051220
:100742000D0B90E680E054F7F0538EF8C2033001AF
:1007520005120122C201300329120E605024C20385
:10076200120D9220001690E682E030E704E020E1CC
:10077200EF90E682E030E604E020E0E4120D3A1267
:070782000E62120E6C80C72D
:01078900224D
:1001220090E6B9E070030201FE1470030202A724F4
:10013200FE700302033C24FB70030201F8147003F7
:100142000201F21470030201E61470030201EC24AE
:100152000560030203A8120E6440030203B490E692
:10016200BBE024FE602C14604724FD60161460314D
:1001720024067066E50A90E6B3F0E50B90E6B4F06B
:100182000203B4E51290E6B3F0E51390E6B4F00290
:1001920003B4E50C90E6B3F0E50D90E6B4F002038B
:1001A200B4E50E90E6B3F0E50F90E6B4F00203B4C6
:1001B20090E6BAE0FF120D66AA06A9077B01EA499A
:1001C2004B600DEE90E6B3F0EF90E6B4F00203B4AC
:1001D20090E6A0E04401F00203B490E6A0E04401FE
:1001E200F00203B4120E3C0203B4120E580203B41E
:1001F200120C660203B4120E2A0203B4120E6640F7
:10020200030203B490E6B8E0247F602B14603C2420
:1002120002600302029DA200E433FF25E0FFA20276
:10022200E4334F90E740F0E4A3F090E68AF090E6E2
:100232008B7402F00203B4E490E740F0A3F090E67E
:100242008AF090E68B7402F00203B490E6BCE054AC
:100252007EFF7E00E0D3948040067C007D01800416
:100262007C007D00EC4EFEED4F244EF582740E3E76
:10027200F583E493FF3395E0FEEF24A1FFEE34E62D
:100282008F82F583E0540190E740F0E4A3F090E61A
:100292008AF090E68B7402F00203B490E6A0E04488
:1002A20001F00203B4120E6840030203B490E6B8F0
:1002B200E024FE601D240260030203B490E6BAE06B
:1002C200B40105C2000203B490E6A0E04401F002CA
:1002D20003B490E6BAE0705990E6BCE0547EFF7E2B
:1002E20000E0D3948040067C007D0180047C007D88
:1002F20000EC4EFEED4F244EF582740E3EF583E483
:1003020093FF3395E0FEEF24A1FFEE34E68F82F5F2
:1003120083E054FEF090E6BCE05480FF13131354C4
:100322001FFFE0540F2F90E683F0E04420F0020319
:10033200B490E6A0E04401F08078120E6A50739007
:10034200E6B8E024FE60202402706790E6BAE0B4CA
:100352000104D200805C90E6BAE06402605490E648
:10036200A0E04401F0804B90E6BCE0547EFF7E00AA
:10037200E0D3948040067C007D0180047C007D00F7
:10038200EC4EFEED4F244EF582740E3EF583E4935F
:10039200FF3395E0FEEF24A1FFEE34E68F82F58372
:1003A200E04401F0800C1203BC500790E6A0E04448
:0903B20001F090E6A0E04480F0A7
:0103BB00221F
:0300330002008C3C
:04008C0053D8EF3224
:10009000120100020000004018166A66000001020A
:1000A00000010A06000200000040010009022700CA
:1000B000010100A0FA0904000003FF000000070589
:1000C0000102400000070586020002000705020247
:1000D00000020009022700010100A0FA0904000043
:1000E00003FF00000007050202400000070586022A
:1000F00040000007050102400000040309040E034C
:1001000051004800590043004300440014034900D3
:100110004D00470031003300320045002000200030
:020120000000DD
:03004300020B00AD
:03005300020B009D
:100B0000020DB700020E1400020DFE00020DCF0010
:100B1000020C9D00020CD400020E6D00020E6E004D
:100B2000020E6F00020E7000020E71000209D70063
:100B3000020E7200020E7300020E7400020E7500A7
:100B4000020E7600020E6E00020E7700020E780092
:100B5000020E7900020E7A00020E7B00020E7C006B
:100B6000020E7D00020E6E00020E6E00020E6E007E
:100B7000020E7E00020E7F00020E8000020E810037
:100B8000020E8200020E8300020E8400020E850017
:100B9000020E8600020E8700020E8800020E8900F7
:100BA000020E8A00020E8B00020E8C00020E8D00D7
:080BB000020E8E00020E8F0000
:100D3A0090E682E030E004E020E60B90E682E030C4
:100D4A00E119E030E71590E680E04401F07F147E77
:0C0D5A0000120AA990E680E054FEF0228E
:100D920090E682E044C0F090E681F04387010000D3
:040DA200000000222B
:100D0B0030050990E680E0440AF0800790E680E029
:100D1B004408F07FDC7E05120AA990E65D74FFF0B3
:0F0D2B0090E65FF05391EF90E680E054F7F022EE
:020D6600A907DB
:100D6800AE14AF158F828E83A3E064037017AD01B4
:100D780019ED7001228F828E83E07C002FFDEC3EFE
:090D8800FEAF0580DF7E007F0054
:010D9100223F
:100AA9008E368F3790E600E054187012E53724012E
:100AB900FFE43536C313F536EF13F537801590E6A5
:100AC90000E05418FFBF100BE53725E0F537E53690
:100AD90033F536E5371537AE36700215364E6005F3
:060AE900120DA680EE22B2
:100DA6007400F58690FDA57C05A3E582458370F960
:010DB600221A
:10078A0090E6007412F000000090E61074A0F000E9
:10079A00000090E6017443F000000090E61274A095
:1007AA00F0000000E490E613F000000090E61474F4
:1007BA00E0F0000000E490E615F000000090E60486
:1007CA007480F00000007402F00000007406F0006B
:1007DA000000E4F000000090E60274E6F000000079
:1007EA0090E60374F8F000000090E670E04440F0F0
:1007FA00000000E490E609F000000043B20F90E622
:10080A001804F00000007411F000000090E61A7459
:10081A0009F0000000E490E671F090E672F075B419
:10082A000775B6FFD28090E65EE04408F00000004B
:10083A00E490E68DF053B1F77F64FE120AA943B142
:10084A0008C20443B1047B0C7A00E4FD7F811208DC
:10085A00D9E4FBFA7D017F811208D97B037A007DF6
:10086A00027F811208D9E4FBFA7D037F811208D93D
:10087A007B137A007D047F811208D97B077A007D79
:10088A00537F811208D97B107A007D087F81120874
:10089A00D9E4FBFA7D097F811208D97B017A007DB0
:1008AA00267F811208D97B037A007D1C7F8112087A
:1008BA00D97B027A007D1D7F811208D97B3F7A009D
:0F08CA007D1E7F811208D97F647E00120AA92249
:010E6C002263
:020E6000D3229B
:020E6200D32299
:020E6400D32297
:100C660090E680E030E71590E6247402F00000007C
:100C7600E490E625F0000000D2048013E490E62418
:100C8600F000000090E6257440F0000000C20490D9
:070C9600E6BAE0F518D322D5
:100E2A0090E740E518F0E490E68AF090E68B04F04B
:020E3A00D322C1
:080E580090E6BAE0F516D32282
:100E3C0090E740E516F0E490E68AF090E68B04F03B
:020E4C00D322AF
:020E6600D32295
:020E6800D32293
:020E6A00D32291
:1003BC0090E6B9E0244B700302044D147003020460
:1003CC00DF24FE700302051724F6700302056B246C
:1003DC000F60030205AEE490E68AF090E68BF09095
:1003EC00E6A0E020E1F990E68BE0F5360000009005
:1003FC00E6047480F00000007406F0000000E4F0E5
:10040C007B0CFAFD7F811208D97B037A007D027F79
:10041C00811208D9E4FBFA7D037F811208D97B1382
:10042C007A007D047F811208D97B177A007D537F77
:10043C00811208D9E4FBFA7D267F811208D90205C6
:10044C00B0E490E68AF090E68BF090E6A0E020E134
:10045C00F990E68BE0F536D3943F4024E4F53774FD
:10046C00402537F582E434E7F583E0FF7413253734
:10047C00F582E43418F583EFF00537E537B440DF47
:10048C00901814E0FD7F01120BB8901815E0FD7F59
:10049C0002120BB8901816E0FD7F03120BB89018DF
:1004AC0017E0FD7F04120BB8901818E0FD7F0512C1
:1004BC000BB8901819E0FD7F06120BB890181AE0D3
:1004CC00FD7F07120BB890181BE0FD7F08120BB8CC
:1004DC000205B0E4F53774132537F582E43418F5CA
:1004EC0083E0FF74402537F582E434E7F583EFF0C1
:1004FC000537E537B440DF000000E490E68AF000F1
:10050C00000090E68B7440F00205B0E490E68AF0AF
:10051C0090E68BF090E6A0E020E1F990E68BE0F518
:10052C0036D394124024E4F53774402537F582E431
:10053C0034E7F583E0FF74002537F582E43418F5D1
:10054C0083EFF00537E537B413DF901800E07054F3
:10055C00A3E0FDA3E0FB7A007F811208D9804590CF
:10056C00E74074BCF0A37412F0A37408F0E4A3F099
:10057C00A37406F0E4A3F0A304F0E4A3F0A374A026
:10058C00F0300405E4A3F0800690E74974FFF00016
:10059C000000E490E68AF000000090E68B740AF00C
:0505AC008002D322C310
:0105B1002227
:100DB700C0E0C083C082D2015391EF90E65D740119
:080DC700F0D082D083D0E032AD
:100DFE00C0E0C083C0825391EF90E65D7404F0D0E2
:060E0E0082D083D0E03227
:100E1400C0E0C083C0825391EF90E65D7402F0D0CD
:060E240082D083D0E03211
:100C9D00C0E0C083C08290E680E030E70E85080C8E
:100CAD0085090D85100E85110F800C85100C851191
:100CBD000D85080E85090F5391EF90E65D7410F0C8
:070CCD00D082D083D0E03299
:100DCF00C0E0C083C082D2035391EF90E65D7408F8
:080DDF00F0D082D083D0E03295
:100CD400C0E0C083C08290E680E030E70E85080C57
:100CE40085090D85100E85110F800C85100C85115A
:100CF4000D85080E85090F5391EF90E65D7420F081
:070D0400D082D083D0E03261
:010E6D003252
:010E6E003251
:010E6F003250
:010E7000324F
:010E7100324E
:1009D700C0E0C0F0C083C082C0D075D000C000C0E6
:0D09E70001C002C003C004C005C006C00767
:1009F400C2AF90E68DE4F090E780E0F521701253E9
:100A0400B1F7C2807F64FE120AA943B108D2808084
:100A140065E521B4010F53B1F77F0A7E00120AA9DC
:100A240043B1088051E521B4020DC2807F647E0089
:100A3400120AA9D280803FE5216403702A90E781DD
:100A4400E0FD7F0A120BB890E782E0FD7F0B120BEA
:100A5400B890E783E0FD7F0C120BB890E784E0FDCB
:100A64007F0D120BB8800FE521B4040A90E781E0F2
:100A7400FD7F09120BB800000090E68DE4F053915D
:0A0A8400EF90E65FE04408F0D2AF07
:100A8E00D007D006D005D004D003D002D001D000BC
:0B0A9E00D0D0D082D083D0F0D0E03266
:010E7200324D
:010E7300324C
:010E7400324B
:010E7500324A
:010E76003249
:010E77003248
:010E78003247
:010E79003246
:010E7A003245
:010E7B003244
:010E7C003243
:010E7D003242
:010E7E003241
:010E7F003240
:010E8000323F
:010E8100323E
:010E8200323D
:010E8300323C
:010E8400323B
:010E8500323A
:010E86003239
:010E87003238
:010E88003237
:010E89003236
:010E8A003235
:010E8B003234
:010E8C003233
:010E8D003232
:010E8E003231
:010E8F003230
:0808D9008F388D398A3A8B3B00
:1008E10053B1FB7F0A7E00120DE7E4F53CF53D5361
:1008F100B1FD7F057E00120DE7AF3DE538A8070881
:100901008002C313D8FC30E00543B101800353B129
:10091100FE7F057E00120DE743B1027F0A7E0012C1
:100921000DE7053DE53D7002053CC39408E53C64D7
:1009310080948040BAE4F53CF53D53B1FD7F057EDE
:1009410000120DE7AF3DE539A807088002C313D8AF
:10095100FC30E00543B101800353B1FE7F057E0009
:10096100120DE743B1027F0A7E00120DE7053DE556
:100971003D7002053CC39408E53C6480948040BA14
:10098100E4F53CF53D53B1FD7F057E00120DE7E531
:100991003BAE3AA83D088005CEC313CE13D8F95417
:1009A1000164014E700543B101800353B1FE7F051F
:1009B1007E00120DE743B1027F0A7E00120DE705AA
:1009C1003DE53D7002053CC39408E53C648094809C
:0509D10040B343B10436
:0109D60022FE
:040BB8008F388D39AC
:100BBC00C2A07F017E00120DE7E4F53AF53BAF3B96
:100BCC00E539A807088002C313D8FC30E004D2A191
:100BDC008002C2A17F017E00120DE7D2A27F017EAE
:100BEC0000120DE7C2A27F017E00120DE7053BE566
:100BFC003B7002053AC39408E53A6480948040BE89
:100C0C00E4F53AF53BAF3BE538A807088002C3137F
:100C1C00D8FC30E004D2A18002C2A17F017E001278
:100C2C000DE7D2A27F017E00120DE7C2A27F017EEA
:100C3C0000120DE7053BE53B7002053AC39408E54D
:100C4C003A6480948040BED2A07F017E00120DE7F2
:090C5C00C2A07F017E00120DE729
:010C6500226C
:100DE700AD07AC06ED25E0FDEC33FCED4C6007EDFF
:070DF7001D70011C80F522B4
:030000000200807B
:0C008000787FE4F6D8FD75813D0205B2E2
:100AEF00EB9FF5F0EA9E42F0E99D42F0E89C45F05D
:010AFF0022D4
:00000001FF
